:04000000FEEFFFF020
:10FB1800000240000100000000000000000000009A
:10FB280000000000001818000018181818181818F5
:10FB380000000000000000000036363636000000E5
:10FB48006666FF6666FF666600000000187EFF1B9B
:10FB58001F7EF8D8FF7E1800000E1BDB6E30180CD5
:10FB680076DBD87000007FC6CFD87070D8CCCC6C4C
:10FB780038000000000000000000181C0C0E0000F7
:10FB88000C1830303030303030180C000030180C81
:10FB98000C0C0C0C0C0C183000000000995A3CFF9F
:10FBA8003C5A990000000000181818FFFF18181890
:10FBB8000000000030181C1C0000000000000000BD
:10FBC8000000000000FFFF000000000000000038F7
:10FBD8003800000000000000000060603030181895
:10FBE8000C0C0606030300003C66C3E3F3DBCFC737
:10FBF800C3663C00007E18181818181818783818AA
:10FC08000000FFC0C06030180C0603E77E00007ECD
:10FC1800E70303077E070303E77E00000C0C0C0CC8
:10FC28000CFFCC6C3C1C0C00007EE7030307FEC0F5
:10FC3800C0C0C0FF00007EE7C3C3C7FEC0C0C0E7A6
:10FC48007E000030303030180C06030303FF00003C
:10FC58007EE7C3C3E77EE7C3C3E77E00007EE70312
:10FC680003037FE7C3C3E77E00000038380000388D
:10FC78003800000000000030181C1C00001C1C008C
:10FC880000000000060C183060C06030180C060038
:10FC9800000000FFFF00FFFF0000000000006030D0
:10FCA800180C0603060C183060000018000018181D
:10FCB8000C0603C3C37E00003F60CFDBD3DDC37EE9
:10FCC8000000000000C3C3C3C3FFC3C3C3663C181E
:10FCD8000000FEC7C3C3C7FEC7C3C3C7FE00007E7C
:10FCE800E7C0C0C0C0C0C0C0E77E0000FCCEC7C32C
:10FCF800C3C3C3C3C7CEFC0000FFC0C0C0C0FCC0A4
:10FD0800C0C0C0FF0000C0C0C0C0C0C0FCC0C0C0F0
:10FD1800FF00007EE7C3C3CFC0C0C0C0E77E0000BD
:10FD2800C3C3C3C3C3FFC3C3C3C3C300007E181880
:10FD3800181818181818187E00007CEEC606060653
:10FD480006060606060000C3C6CCD8F0E0F0D8CCFC
:10FD5800C6C30000FFC0C0C0C0C0C0C0C0C0C00093
:10FD680000C3C3C3C3C3C3DBFFFFE7C30000C7C7E8
:10FD7800CFCFDFDBFBF3F3E3E300007EE7C3C3C3CE
:10FD8800C3C3C3C3E77E0000C0C0C0C0C0FEC7C3B2
:10FD9800C3C7FE00003F6EDFDBC3C3C3C3C3663CFB
:10FDA8000000C3C6CCD8F0FEC7C3C3C7FE00007EA0
:10FDB800E70303077EE0C0C0E77E000018181818A4
:10FDC800181818181818FF00007EE7C3C3C3C3C368
:10FDD800C3C3C3C30000183C3C6666C3C3C3C3C3E4
:10FDE800C30000C3E7FFFFDBDBC3C3C3C3C300001B
:10FDF800C366663C3C183C3C6666C300001818188D
:10FE08001818183C3C6666C30000FFC0C060307E0E
:10FE18000C060303FF00003C303030303030303007
:10FE2800303C00030306060C0C18183030606000E4
:10FE3800003C0C0C0C0C0C0C0C0C0C3C00000000D6
:10FE48000000000000C3663C18FFFF00000000002F
:10FE58000000000000000000000000000000001882
:10FE680038307000007FC3C37F03C37E00000000EA
:10FE78000000FEC3C3C3C3FEC0C0C0C0C000007E34
:10FE8800C3C0C0C0C37E0000000000007FC3C3C35E
:10FE9800C37F030303030300007FC0C0FEC3C37E08
:10FEA8000000000000003030303030FC303030339B
:10FEB8001E7EC303037FC3C3C37E0000000000008F
:10FEC800C3C3C3C3C3C3FEC0C0C0C0000018181852
:10FED8001818181800001800386C0C0C0C0C0C0CB6
:10FEE8000C00000C000000C6CCF8F0D8CCC6C0C08E
:10FEF800C0C000007E1818181818181818187800AC
:10FF080000DBDBDBDBDBDBFE000000000000C6C63D
:10FF1800C6C6C6C6FC0000000000007CC6C6C6C631
:10FF2800C67C00000000C0C0C0FEC3C3C3C3FE003F
:10FF38000000000303037FC3C3C3C37F00000000A6
:10FF48000000C0C0C0C0C0E0FE000000000000FE0D
:10FF580003037EC0C07F0000000000001C36303064
:10FF68003030FC3030300000007EC6C6C6C6C6C67B
:10FF7800000000000000183C3C6666C3C300000097
:10FF8800000000C3E7FFDBC3C3C30000000000009C
:10FF9800C3663C183C66C300000000C060603018AF
:10FFA8003C6666C3000000000000FF6030180C06C5
:10FFB800FF0000000000000F18181838F038181853
:10FFC800180F406070787C7E7F7E7C78706040007F
:10FFD800183C7EFF0000183C7EFF000000183C7EA5
:10FFE800FF000000FF7E3C180048656C6C6F2057CE
:07FFF8006F726C6400000051
:020000040001F9
:100000000450800B0D6E045004240F6E03AE0BEFF2
:1000100080F00DEF80F00EEF80F00F800F50D8B41D
:1000200014EF80F016EF80F02BEF80F00F28D8A4AB
:100030001CEF80F01EEF80F026EF80F0000E016EC6
:10004000000E026E000E036E000E046E038E000E94
:10005000046E33EF80F0000E016E000E026E000E93
:10006000036E000E046E0850800B0E6E0D500E18BD
:10007000D8B43DEF80F03FEF80F040EF80F00D8C82
:10008000085008240E6E07AE48EF80F04AEF80F06B
:100090004BEF80F00E800E50D8B451EF80F053EF4C
:1000A00080F068EF80F00E28D8A459EF80F05BEF65
:1000B00080F063EF80F0000E056E000E066E000EFD
:1000C000076E000E086E078E000E086E70EF80F04F
:1000D000000E056E000E066E000E076E000E086E16
:1000E0000F500E5CD8B077EF80F079EF80F0A0EF82
:1000F00080F00DAC7EEF80F080EF80F082EF80F03A
:10010000800E0D1A0FC510F50EC50FF510C50EF5B2
:1001100001C510F505C501F510C505F502C510F5B9
:1001200006C502F510C506F503C510F507C503F5AC
:1001300010C507F504C510F508C504F510C508F588
:10014000000E106E0F500EC509F50A6A095E000E0A
:100150000A5A0ABEB5EF80F00A5009E11A0E095C8E
:10016000D8A0B5EF80F0B7EF80F0EEEF80F001504F
:10017000021003100410D8A4C0EF80F0C3EF80F089
:10018000010EC4EF80F0000E106E000E016E000E26
:10019000026E000E036E000E046E0EC50FF5F7EF33
:1001A00080F010A0D6EF80F0D8EF80F0DEEF80F086
:1001B000D89010300109106EE0EF80F0D890103226
:1001C00001A0E5EF80F0E7EF80F0E8EF80F0108E1F
:1001D000043404320332023201320F2A0E500F5C13
:1001E000D8A0F5EF80F0F7EF80F0D1EF80F00DBCF4
:1001F000FCEF80F0FEEF80F03EEF81F00F50D8A4CE
:1002000004EF81F006EF81F010EF81F0000E016E37
:10021000000E026E000E036E000E046E5FEF82F0A1
:1002200005500126065002220750032208500422DE
:1002300004A01DEF81F01FEF81F0CBEF81F010A043
:1002400024EF81F026EF81F02CEF81F0D890103070
:100250000109106E2EEF81F0D890103201A033EF1B
:1002600081F035EF81F036EF81F0108E04340432E6
:100270000332023201320F2ACBEF81F00550015CCC
:1002800006500258075003580450800A096E08505F
:10029000800A0958D8B04FEF81F051EF81F07CEF20
:1002A00081F00150055C096E025006580A6E035039
:1002B00007580B6E045008580C6EFF0E0924016E8F
:1002C000FF0E0A20026EFF0E0B20036EFF0E0C20A5
:1002D000046E800E0D1A106C1050D8A472EF81F0CD
:1002E00074EF81F084EF81F0010E0126000E0222EE
:1002F0000322042284EF81F00550015E0650025A69
:100300000750035A0850045A0150021003100410F9
:10031000D8A48DEF81F08FEF81F0C4EF81F0105001
:10032000D8A495EF81F097EF81F0C4EF81F0000E33
:10033000016E000E026E000E036E000E046E5FEF83
:1003400082F0D890013602360336043610AEABEF99
:1003500081F0ADEF81F0AEEF81F0018010A0B3EF3E
:1003600081F0B5EF81F0B9EF81F0D8801036BBEFA6
:1003700081F0D89010360F50D8B4C1EF81F0C3EFA0
:1003800081F0C4EF81F00F0603AEC9EF81F0CBEF2F
:1003900081F0A1EF81F0000E0E6E10AED2EF81F071
:1003A000D4EF81F0ECEF81F010C509F57F0E09164E
:1003B000D8B4DDEF81F0DFEF81F0E3EF81F0010EE3
:1003C0000E6EECEF81F001A0E8EF81F0EAEF81F032
:1003D000ECEF81F0DFEF81F00E50D8B4F2EF81F056
:1003E000F4EF81F01FEF82F0010E0126000E0222D1
:1003F0000322042204A0FFEF81F001EF82F01FEF3F
:1004000082F001C509F502C50AF503C50BF504C55F
:100410000CF50C340C320B320A32093209C501F5E5
:100420000AC502F50BC503F50CC504F50F28D8B4B1
:100430001CEF82F01EEF82F01FEF82F00F2A0F28D0
:10044000D8B425EF82F027EF82F02FEF82F00F5023
:10045000D8A42DEF82F02FEF82F041EF82F0000E52
:10046000016E000E026E000E036E000E046E0F5041
:10047000D8A43DEF82F03FEF82F041EF82F0000E12
:100480000D6E0FA046EF82F048EF82F04BEF82F046
:10049000038E4CEF82F0039ED8900F30046E0DAEA9
:1004A00054EF82F056EF82F057EF82F0048E01C5D0
:1004B00001F502C502F503C503F504C504F51200F4
:1004C000000E046E100E036E000E066E000E056E1A
:1004D00038EC88F0000E046E110E036E000E066EEE
:1004E000000E056E38EC88F0000E046E120E036EDE
:1004F000000E066E000E056E38EC88F0000E046EDD
:10050000130E036E000E066E000E056E38EC88F0BA
:10051000000E046E140E036E000E066E000E056EC5
:1005200038EC88F0000E256E000E266E200E276E29
:10053000410E286EF4EC86F0000E046E110E036E70
:10054000000E066E180E056E38EC88F0000E046E74
:10055000120E036E610E066E210E056E38EC88F0E9
:10056000000E046E130E036E000E066E6F0E056E07
:1005700038EC88F0000E046E140E036E490E066E01
:100580005F0E056E38EC88F0000E046E100E036EE0
:10059000080E066E000E056E38EC88F0000E256E13
:1005A000000E266E200E276E410E286EF4EC86F0AB
:1005B000000E046E110E036E100E066E3B0E056EDD
:1005C00038EC88F0000E256E000E266E480E276E61
:1005D000420E286EF4EC86F0000E046E010E036EDF
:1005E000010E066E1C0E056E38EC88F0000E046ECF
:1005F000020E036E010E066E000E056E38EC88F0DA
:10060000000E046E030E036E100E066E300E056EA5
:1006100038EC88F0000E046E070E036E000E066EB6
:10062000000E056E38EC88F0000E046E080E036EA6
:10063000080E066E080E056E38EC88F0000E046E8B
:100640000B0E036E110E066E000E056E38EC88F070
:10065000000E046E0C0E036E000E066E000E056E8C
:1006600038EC88F0000E046E0F0E036E0D0E066E51
:10067000010E056E38EC88F0000E046E150E036E48
:10068000000E066E200E056E38EC88F0000E046E2B
:10069000200E036E000E066E000E056E38EC88F01C
:1006A000000E046E210E036E000E066E000E056E27
:1006B00038EC88F0000E046E300E036E000E066EED
:1006C000000E056E38EC88F0000E046E310E036EDD
:1006D000000E066EDB0E056E38EC88F0000E046E20
:1006E000320E036E000E066E000E056E38EC88F0BA
:1006F000000E046E330E036E000E066E000E056EC5
:1007000038EC88F0000E046E340E036E000E066E98
:10071000DB0E056E38EC88F0000E046E350E036EAD
:10072000000E066E000E056E38EC88F0000E046EAA
:10073000360E036E000E066EAF0E056E38EC88F0B6
:10074000000E046E370E036E000E066E000E056E70
:1007500038EC88F0000E046E380E036E000E066E44
:10076000DB0E056E38EC88F0000E046E390E036E59
:10077000000E066E000E056E38EC88F0000E046E5A
:10078000500E036E000E066E000E056E38EC88F0FB
:10079000000E046E510E036E080E066E080E056EF6
:1007A00038EC88F0000E046E520E036E080E066ED2
:1007B0000A0E056E38EC88F0000E046E530E036EC0
:1007C000000E066E0A0E056E38EC88F0000E046E00
:1007D000540E036E0A0E066E080E056E38EC88F095
:1007E000000E046E550E036E080E066E080E056EA2
:1007F00038EC88F0000E046E560E036E000E066E86
:10080000000E056E38EC88F0000E046E570E036E75
:100810000A0E066E000E056E38EC88F0000E046EAF
:10082000580E036E070E066E100E056E38EC88F03B
:10083000000E046E590E036E070E066E100E056E46
:1008400038EC88F0000E046E070E036E000E066E84
:10085000120E056E38EC88F0000E256E000E266E26
:10086000480E276E420E286EF4EC86F0000E046EE1
:10087000070E036E100E066E170E056E38EC88F02C
:100880001200246EE00E1B24216E226AFF0E22222B
:10089000000E266E000E256E21C501F522C502F55B
:1008A000000E046E0D0E036E05EC88F01E0E012482
:1008B0001F6EFB0E0220206E25501F5E2650205A10
:1008C0000C0E1F26000E20221FC5F6F420C5F7F4DB
:1008D0000800F5C423F5000E286E000E276E27C50C
:1008E0001FF5010E206E1F2A78EF84F0D890203675
:1008F0001F2E76EF84F0205023140009D8B483EF24
:1009000084F085EF84F0B8EF84F01E04D8A48BEF58
:1009100084F08DEF84F09BEF84F01A5025240B6E49
:100920001CC50CF51DC50DF52750245C080FB4EC53
:1009300087F0B8EF84F01E502502F3501A240B6E96
:10094000275008081E02F35024241E240C6E1E504B
:100950002502F3501A241E240D6E1CC50EF51DC56C
:100960000FF5275008081E02F350242461EC85F08F
:10097000274A282A28BEC6EF84F0285009E1080E2D
:10098000275CD8A0C6EF84F0C8EF84F06FEF84F046
:10099000254A262A26BED6EF84F0265009E10D0E00
:1009A000255CD8A0D6EF84F0D8EF84F04CEF84F02B
:1009B00012005DEC88F0D2EC87F0000E0B6EDC0EBE
:1009C0000C6EB00E0D6E000E0F6E000E0E6E000E51
:1009D00061EC85F0C284000E0B6EDC0E0C6EB00E66
:1009E0000D6EAE0E0F6EDC0E0E6E000E61EC85F01D
:1009F000400E296E000E2B6E000E2A6E010E2C6E1C
:100A0000F10E2D6EFF0E2E6E400E45EC87F0000E9F
:100A1000256E000E266E7A0E276E440E286EF4ECBC
:100A200086F0000E0B6EDC0E0C6EB00E0D6EF80E26
:100A30000F6E000E0E6E000E61EC85F0400E296EFA
:100A4000000E2B6E000E2A6E020E2C6EF10E2D6E15
:100A5000FF0E2E6E400E45EC87F0000E256E000E48
:100A6000266E7A0E276E440E286EF4EC86F0000E89
:100A70000B6EDC0E0C6EB00E0D6E070E0F6EE00EE0
:100A80000E6E000E61EC85F0400E296E000E2B6E8E
:100A9000000E2A6E030E2C6EF10E2D6EFF0E2E6EC2
:100AA000400E45EC87F0000E256E000E266E7A0E85
:100AB000276E440E286EF4EC86F0EBEF84F0FEEF28
:100AC000FFF0196E190E016E050E026E0B0E036E0D
:100AD000050E046EEEEC87F00C0E016E050E026E34
:100AE0000D0E036E050E046EEEEC87F00B50DC0865
:100AF0000B6E0D50DC080D6E0D0E016E050E026EB4
:100B00000B0E036E050E046EEEEC87F00F50176EA1
:100B10000EC518F50BC507F50CC508F50DC509F58B
:100B20001950E0EC85F0C198000E146E000E136EA3
:100B3000C4EF85F0000E166E000E156EA8EF85F05E
:100B4000175066EC88F0185066EC88F0154A162AA3
:100B500019500CC510F5116A105E000E115A010EE5
:100B60001026000E11221050155C1650800A126ECD
:100B70001150800A1258D8A0C0EF85F0C2EF85F05E
:100B8000A0EF85F0134A142A0B500DC510F5116A19
:100B9000105E000E115A010E1026000E1122105088
:100BA000135C1450800A126E1150800A1258D8A09B
:100BB000DCEF85F0DEEF85F09AEF85F0C18812005A
:100BC0000A6E0A50085CD8B0E8EF85F0EAEF85F0CD
:100BD000F4EF85F0080E016E050E026E0A0E036E2C
:100BE000050E046EEEEC87F00750095CD8B0FBEF01
:100BF00085F0FDEF85F007EF86F0090E016E050E1A
:100C0000026E070E036E050E046EEEEC87F0000E0A
:100C1000046E360E036E08C505F5066A38EC88F0DA
:100C2000000E046E370E036E0AC505F5066A38EC31
:100C300088F0000E046E380E036E09C505F5066ACD
:100C400038EC88F0000E046E390E036E07C505F50A
:100C5000066A38EC88F0000E046E200E036E0AC59A
:100C600005F5066A38EC88F0000E046E210E036E5E
:100C700007C505F5066A38EC88F0000E6EEC88F0C2
:100C8000220E6EEC88F01200000EC26E000EC16ED5
:100C9000000EBE6E000EC36E000EBF6E000EC06E64
:100CA000030ECA6ECB68E70EC66EC768AF0EC86E7D
:100CB000EF0EC96EEF0E0401186F8F0E106F0869EA
:100CC000030E206F2869E70E006F000E196F000EEB
:100CD000296F000E216F000E096F000E016F000ECC
:100CE000116F000E0201896F000E886F000E876F72
:100CF000000E866F000E0401226F000E2A6F000E98
:100D0000026F000E0A6F000E126F000E1A6F036959
:100D10000B6913691B69070E236F2B6904690C6942
:100D200014691C690F0E246F2C69160E02016A6F7C
:100D3000320E156F310E176F150E6B6F1200000E0D
:100D40001914216E000E1A14226E800E1B14236ECD
:100D50007F0E1C14246E2150221023102410D8A4BE
:100D6000B4EF86F0B6EF86F0BEEF86F0000E196E97
:100D7000000E1A6E000E1B6E000E1C6E000E1D146F
:100D8000216E000E1E14226E800E1F14236E7F0E25
:100D90002014246E2150221023102410D8A4D3EF45
:100DA00086F0D5EF86F0DDEF86F0000E1D6E000EAA
:100DB0001E6E000E1F6E000E206E1D5019180FE1E2
:100DC0001E501A180CE11F501B1809E120501C1866
:100DD000D8B4EDEF86F0EFEF86F0F2EF86F0D89022
:100DE000F3EF86F0D8801200000E2A6E040E296EF2
:100DF00025C52BF526C52CF527C52DF528C52EF5BF
:100E000037EF87F0000E156E000E166E800E176E0F
:100E10003F0E186E2BC511F52CC512F52DC513F517
:100E20002EC514F591EC87F011C52BF512C52CF5E4
:100E300013C52DF514C52EF52BC519F52CC51AF5BE
:100E40002DC51BF52EC51CF5000E1D6E000E1E6E69
:100E5000800E1F6EBF0E206E9FEC86F0D8A033EF81
:100E600087F035EF87F002EF87F0F8EF86F029067C
:100E7000D8A02A06292806E12A28D8A442EF87F01C
:100E800044EF87F002EF87F01200356E2C50090D09
:100E9000F3C431F5F4C432F5000E376E000E366E31
:100EA0007CEF87F036C501F537C502F531C503F58E
:100EB00032C504F505EC88F035500124336E000E80
:100EC0000220346E29C51AF536502D242F6E375066
:100ED0002E20306E2FC5F6F430C5F7F40800F5C4A7
:100EE0001BF52AC51CF52BC51DF52CC51EF5335069
:100EF00041EC84F0364A372A36502D242F6E375075
:100F00002E20306E2FC5F6F430C5F7F40800F550EA
:100F10000009D8A48EEF87F090EF87F052EF87F0AA
:100F20001200000E151A000E161A000E171A800E67
:100F3000181A11C501F512C502F513C503F514C53C
:100F400004F515C505F516C506F517C507F518C549
:100F500008F500EC80F001C511F502C512F503C5D6
:100F600013F504C514F512000E6E0E0E016E050E7B
:100F7000026E0B0E036E050E046EEEEC87F00B5046
:100F8000DC080B6E0BC507F50E28086E0B28096EE2
:100F90000E50E0EC85F00D5066EC88F00C5066ECDD
:100FA00088F01200C188BE98BE86BE96000E256EDF
:100FB000000E266EFA0E276E430E286EF4EC86F0B5
:100FC000BE86000E256E000E266EFA0E276E430EAC
:100FD000286EF4EC86F060EC82F0120003C5D9F4C0
:100FE00004C5DAF4DF50056E01C5D9F402C5DAF4A0
:100FF00003C5E1F404C5E2F4DFC4E7F401C5D9F4A4
:1010000002C5DAF405C5DFF4120001500302F3C48F
:1010100005F5F4C406F501500402F350062602500B
:101020000302F350062605C501F506C502F51200B8
:10103000000E0001606F000E616F000E636F000E06
:10104000646F000E656F000E666F000E676F000E16
:10105000686F1200600E0001AD6F000EAF6F000EE2
:10106000B36F060EB16F000EB06F000EAC6F1200C2
:1010700004506EEC88F003506EEC88F0065066EC7D
:1010800088F0055066EC88F01200020E0001846FB3
:10109000400E856F000E866F000E8C6F010E896FFB
:1010A000C89C1200016E01C581F0B1A25AEF88F010
:1010B0005CEF88F055EF88F0120018EC88F044ECF3
:1010C00086F02AEC88F045EC88F01200026EC19898
:1010D000BE88025052EC88F0C1881200026EBE98A1
:1010E000C198025052EC88F0C1881200000EF86ED0
:0610F0000001D9EF84F0BD
:04FFFC0076EF88F024
:020000040020DA
:10000000FF0FFF0FFF0FFF0FFF0FFF0FFF0FFF0F80
:10001000FF0FFF0FFF0FFF0FFF0FFF0FFF0FFF0F70
:10002000FF0FFF0FFF0FFF0FFF0FFF0FFF0FFF0F60
:10003000FF0FFF0FFF0FFF0FFF0FFF0FFF0FFF0F50
:020000040030CA
:0A0000008CFFF7FF9FFFFFFFFFFFDB
:00000001FF
