:040000007DEF02F09E
:10040000EE01EE01EE01EE013E01EE013E01EE01D4
:10041000CA01EE01EE01EE01EE01EE01EE01EE0188
:10042000EE013E013E013E01EE01EE01EE01EE0164
:10043000EE01EE01EE01EE01EE01EE01EE01EE0144
:10044000EE01EE01EE01EE013E013E01EE01EE0194
:10045000EE01EE01EE013E01EE01EE01EE01EE01D4
:10046000D001EE01EE01EE01EE01EE01EE01EE0132
:10047000EE01EE01EE01EE013E01EE01EE01EE01B4
:10048000EE01EE01EE01EE01EE01EE01EE01EE01F4
:10049000EE01EE01EE01EE013E01EE013E013E01F4
:1004A000BB01EE01EE01EE01EE01EE01EE01EE0107
:1004B000EE01EE01EE01EE01EE01EE01EE01EE01C4
:1004C000EE01EE01EE01EE01EE01EE01EE01EE01B4
:1004D000EE01EE01EE01EE01EE01EE01EE01EE01A4
:1004E0003E01EE01EE01EE013E013E013E013E0104
:1004F000EE01EE01EE01EE01FF00ACEF03F0000EA5
:10050000BE6E000EBF6E000EC06E000EC16E000EFD
:10051000C26E000EC36EC668C768C868C9680F0E91
:10052000CA6ECB6804010069F80E086F106918697B
:10053000070E206F2869000E016F000E096F000E74
:10054000116F000E196F000E216F000E296F000E43
:100550000201896F000E886F000E876F000E866F94
:10056000000E0401026F000E0A6F000E126F000EE3
:100570001A6F000E226F000E2A6F03690B69136950
:100580001B69070E236F2B6904690C6914691C69C8
:100590000F0E246F2C69080E02013E6F090E3F6F8B
:1005A0000A0E406F000E0401056F000E066F000E6C
:1005B000076F000E0D6F000E0E6F000E0F6F000E16
:1005C000156F000E166F000E176F000E256F000ED0
:1005D000266F000E276F1200D68A000ED6BE010EBF
:1005E0000B6ED69E550E0401596FAA0E596F599184
:1005F000000E5F6F040E5E6F000E5D6F550E596F3B
:10060000AA0E596F59810BB002D0D69E01D0D68E5A
:100610000301638168816C91AF90D680BA0E086E39
:10062000070E096E000E0A6ED3EC03F09F80B490A3
:10063000D682BC0E086E070E096E000E0A6ECCEC58
:1006400003F0A480B890D684B40E086E070E096E2D
:10065000000E0A6EC5EC03F0A88012000C500D10BD
:100660000E10D8B436EF03F038EF03F045EF03F087
:1006700002D845EF03F00500FA6E0C50FD6E0D50E8
:10068000FE6E0E50FF6EFA50120012001250131040
:100690001410D8B44EEF03F050EF03F05DEF03F009
:1006A00002D85DEF03F00500FA6E1250FD6E135094
:1006B000FE6E1450FF6EFA50120012000F50101010
:1006C0001110D8B466EF03F068EF03F075EF03F094
:1006D00002D875EF03F00500FA6E0F50FD6E105052
:1006E000FE6E1150FF6EFA5012001200D8C405F5CC
:1006F000FAC406F5FBC407F5B8902EEC03F007C565
:10070000FBF406C5FAF405C5D8F41100620E000129
:10071000AD6F000EAF6F000EB36F020EB16F000E23
:10072000B06F000EAC6F1200FAC401F5FBC402F505
:10073000AF9046EC03F002C5FBF401C5FAF41100DA
:10074000FAC403F5FBC404F5B4905EEC03F004C5F1
:10075000FBF403C5FAF411000401000E5D6F040EF2
:100760005E6F000E5F6F0001B6EF03F0BEEC03F0AA
:10077000D68ED68CBAEF03F07DEF02F086EC03F054
:100780007FEC02F0ECEC02F0120008C50CF509C594
:100790000DF50AC50EF5120008C50FF509C510F5CF
:1007A0000AC511F5120008C512F509C513F50AC5E9
:0607B00014F51200120016
:0607B80011001200120006
:020000040020DA
:10000000FF0FFF0FFF0FFF0FFF0FFF0FFF0FFF0F80
:10001000FF0FFF0FFF0FFF0FFF0FFF0FFF0FFF0F70
:10002000FF0FFF0FFF0FFF0FFF0FFF0FFF0FFF0F60
:10003000FF0FFF0FFF0FFF0FFF0FFF0FFF0FFF0F50
:020000040030CA
:0A000000FFFFFFFF9FFFFFFFFFFF60
:00000001FF
