:040000007DEF02F09E
:100400003E013E013E013E013E013E013E013E01F4
:100410003E013E013E013E013E013E013E013E01E4
:100420003E013E013E013E013E013E013E013E01D4
:100430003E013E013E013E013E013E013E013E01C4
:10044000CC093E013E013E013E013E013E013E011E
:100450003E013E013E013E013E013E013E013E01A4
:10046000CD093E013E013E013E013E013E013E01FD
:100470003E013E013E013E013E013E013E013E0184
:100480003E013E013E013E013E013E013E013E0174
:100490003E013E013E013E013E013E013E013E0164
:1004A0003E013E013E013E013E013E013E013E0154
:1004B0003E013E013E013E013E013E013E013E0144
:1004C0003E013E013E013E013E013E013E013E0134
:1004D0003E013E013E013E013E013E013E013E0124
:1004E0003E013E013E013E013E013E013E013E0114
:0E04F0003E013E013E013E01FF0078EF13F099
:1026000000486F6C61206D756E646F207069630A9D
:032610000D0000BA
:1026140092EC13F067EC13F0800E016E250E026E3F
:10262400000E036E000E046E2EEC13F0010E026E0B
:10263400260E036E4CEC13F0290E0B6E960E0A6EEA
:102644007F0EE82EFED70A2EFCD70B2EFAD700F009
:1026540018EF13F07DEF02F00201AB9F010EAF6F94
:10266400A00EAE6FF00EAB17AB8BAB89AC8F200E08
:10267400296FCB900401289129912C912B812A91C7
:1026840002017251F80B0109726F7251C70B2809CC
:10269400726F120058EF13F002C5F6F403C5F7F495
:1026A4000800F55086EC13F0024A032A02C5F6F43A
:1026B40003C5F7F40800F5500009D8A464EF13F03B
:1026C40066EF13F04EEF13F01200D68AD68ED68C36
:1026D400A280B29003016681D69E000E04015F6F52
:1026E400040E5E6F000E5D6FD68E12000401000EA4
:1026F4005D6F040E5E6F000E5F6F000EF86E260EA7
:10270400F76E00010AEF13F0016E0201B2AF8DEF14
:1027140013F08FEF13F087EF13F001C5A3F212004B
:10272400600E0001AD6F080EB16F1200B29011007F
:02273400110092
:020000040020DA
:10000000FF0FFF0FFF0FFF0FFF0FFF0FFF0FFF0F80
:10001000FF0FFF0FFF0FFF0FFF0FFF0FFF0FFF0F70
:10002000FF0FFF0FFF0FFF0FFF0FFF0FFF0FFF0F60
:10003000FF0FFF0FFF0FFF0FFF0FFF0FFF0FFF0F50
:020000040030CA
:0A0000008CDDFFFF9FFFDFFFFFFF15
:00000001FF
