:040000007DEF02F09E
:100400003E013E013E013E013E013E013E013E01F4
:100410003E013E013E013E013E013E013E013E01E4
:100420003E013E013E013E013E013E013E013E01D4
:100430003E013E013E013E013E013E013E013E01C4
:10044000440A3E013E013E013E013E013E013E01A5
:100450003E013E013E013E013E013E013E013E01A4
:100460008D0A3E013E013E013E013E013E013E013C
:100470003E013E013E013E013E013E013E013E0184
:100480003E013E013E013E013E013E013E013E0174
:100490003E013E013E013E013E013E013E013E0164
:1004A0003E013E013E013E013E013E013E013E0154
:1004B0003E013E013E013E013E013E013E013E0144
:1004C0003E013E013E013E013E013E013E013E0134
:1004D0003E013E013E013E013E013E013E013E0124
:1004E0003E013E013E013E013E013E013E013E0114
:0E04F0003E013E013E013E01FF00C8EF14F048
:0B2600000025632563256325630000AF
:10260C0018C5D9F419C5DAF4DEC4F6F4DDC4F7F450
:10261C00000EF86E0800F550250AD8A418EF13F038
:10262C001AEF13F069EF13F018C5D9F419C5DAF4E1
:10263C00DE2A000EDD22000E3D6E000E3C6E3CC507
:10264C0040F53E683F6818C5D9F419C5DAF4DEC404
:10265C00F6F4DDC4F7F4000EF86E0800F550630ACA
:10266C00D8A43BEF13F03DEF13F060EF13F018C557
:10267C00D9F419C5DAF4DE2A000EDD221AC5D9F414
:10268C001BC5DAF4DFC41CF5020EDE26DFC41DF513
:10269C00000EDD221CC5D9F41DC5DAF4DF501E6E08
:1026AC0016C50EF517C50FF51EC510F580EC13F009
:1026BC007FEF13F018C5D9F419C5DAF4DE2A000E31
:1026CC00DD227FEF13F018C5D9F419C5DAF4DEC496
:1026DC00F6F4DDC4F7F4000EF86E0800F550056E44
:1026EC00066A16C507F517C508F5CDEC13F060EFB3
:1026FC0013F012003C503D10D8A487EF13F089EF73
:10270C0013F08FEF13F03CC514F53DC515F595EF9F
:10271C0013F0FF0E3C24146EFF0E3D20156E15BEFB
:10272C009AEF13F09CEF13F09EEF13F0A2EF13F05F
:10273C00000E156E000E146E000E136E000E126E4F
:10274C00B4EF13F0000E066E200E056E0EC507F5E5
:10275C000FC508F5CDEC13F0124A132A1450125C75
:10276C001350800A116E1550800A1158D8A0C1EF71
:10277C0013F0C3EF13F0A8EF13F010C505F5066ABC
:10278C000EC507F50FC508F5CDEC13F01200075078
:10279C000810D8B4D4EF13F0D6EF13F0DFEF13F02A
:1027AC0007500810D8A4DDEF13F0DFEF13F0E4EFBF
:1027BC0013F0055014EC15F017EF14F020EE09F09F
:1027CC000750D9260850DA22DE50DE10D8B4F1EFCB
:1027DC0013F0F3EF13F00EEF14F020EE09F00750A6
:1027EC00D9260850DA2210EE03F00750E1260850E3
:1027FC00E222DE50E65CE650800A0D6EDE50800A66
:10280C000D58D8B00CEF14F00EEF14F017EF14F0C5
:10281C0020EE03F00750D9260850DA22DE2A000EEB
:10282C00DD2212000EEC15F0F1EC14F0800E036EAC
:10283C00250E046E000E056E000E066EA9EC14F04B
:10284C00CB960401289729972C972B872A97C38618
:10285C00000E3B6E3B50FF0A3A6E010E276E260EA1
:10286C00286E000E2A6E000E296E3BC52BF52C6AC5
:10287C003AC52DF52E6A000E306E2F68DEEC14F082
:10288C00110E396E3C0E386ECB0EE82EFED7382E5C
:10289C00FCD7392EFAD700F03B2A310E3B6459EFA6
:1028AC0014F05BEF14F030EF14F02EEF14F07DEF1A
:1028BC0002F021C525F522C526F573EF14F01FC5CE
:1028CC0016F520C517F5250E186E050E196E23C5C5
:1028DC001AF524C51BF506EC13F025C5F6F426C530
:1028EC00F7F4000EF86E0800F5500009D8A481EF3B
:1028FC0014F083EF14F065EF14F0000E206E000E50
:10290C001F6E1200A1C241F592EF14F0C396A7EF0F
:10291C0014F0C386A7EF14F04150016E026A025006
:10292C00000AD8B49CEF14F0A7EF14F00150410A40
:10293C00D8B48CEF14F0030AD8B48FEF14F0A7EFCF
:10294C0014F0B29011000201AB9F010EAF6FA00EFC
:10295C00AE6FF00EAB17AB8BAB89AC8F200E296F23
:10296C00CB900401289129912C912B812A91290E2D
:10297C000201726FCB820401289329932C932B8331
:10298C002A93120001EE60F1200EEE6AE806FDE1DA
:10299C00416A406A3F6A3E6A3D6A3C6A0401000E25
:1029AC005D6F040E5E6F000E5F6F000118EF14F088
:1029BC00290E316E050E326E000E1F6E000E206E4B
:1029CC0027C521F528C522F5310E236E050E246E80
:1029DC005FEC14F01200D68AD68ED68CA280B29000
:1029EC0003016681D69E000E04015F6F040E5E6FBC
:1029FC00000E5D6FD68E1200036E0201B2AF09EFAE
:102A0C0015F00BEF15F003EF15F003C5A3F2120050
:102A1C00600E0001AD6F080EB16F1200046E045011
:062A2C0002EC15F012009F
:022A340011008F
:020000040020DA
:10000000FF0FFF0FFF0FFF0FFF0FFF0FFF0FFF0F80
:10001000FF0FFF0FFF0FFF0FFF0FFF0FFF0FFF0F70
:10002000FF0FFF0FFF0FFF0FFF0FFF0FFF0FFF0F60
:10003000FF0FFF0FFF0FFF0FFF0FFF0FFF0FFF0F50
:020000040030CA
:0A0000008CDDFFFF9FFFDFFFFFFF15
:00000001FF
