:04000000FEEFFFF020
:10260000004C3A005637003639009429000E2F004E
:10261000283000D42D00143A00FC3A00F83A00DAD1
:102620003700903A00983A00063A00883A00F639A6
:10263000007E3200203100E63900536567756E6414
:102640006F73203D202575204D696E75746F733D45
:1026500020257520686F72612025750A0D20000005
:10266000050191BF3EEF13F0915106E19005D8B0FE
:102670003CEF13F03EEF13F044EF13F0000E336E17
:10268000010E326E48EF13F090C532F591C533F567
:102690008EC530F58FC531F520C534F521C535F52A
:1026A00022C536F523C537F524C538F525C539F5D6
:1026B00026C53AF527C53BF5000E3D6E1F0E3C6E54
:1026C000000EB46FDAEF13F03C06D8A03D06950E6D
:1026D0003C24D96E050E3D20DA6E34C501F535C5B2
:1026E00002F536C503F537C504F538C505F539C516
:1026F00006F53AC507F53BC508F50A0E096E000E4A
:102700000A6E000E0B6E000E0C6E000E0D6E000EAB
:102710000E6E000E0F6E000E106ED3EC15F001C59C
:1027200028F502C529F503C52AF504C52BF505C50D
:102730002CF506C52DF507C52EF508C52FF5285033
:10274000300FDF6E3206D8A033063006D8A031062F
:1027500034C501F535C502F536C503F537C504F5B1
:1027600038C505F539C506F53AC507F53BC508F581
:102770000A0E096E000E0A6E000E0B6E000E0C6E35
:10278000000E0D6E000E0E6E000E0F6E000E106E1F
:102790005BEC15F001C534F502C535F503C536F51A
:1027A00004C537F505C538F506C539F507C53AF549
:1027B00008C53BF53C503D10D8B4E1EF13F0E3EF12
:1027C00013F0FFEF13F03450351036103710381077
:1027D00039103A103B10D8A4F0EF13F0F2EF13F0D9
:1027E00064EF13F033BEFFEF13F0335006E1320411
:1027F000D8B0FDEF13F0FFEF13F064EF13F01EC538
:1028000013F51FC514F5950E3C24156E050E3D20DD
:10281000166E30C517F531C518F553EC18F01200D7
:1028200040C5D9F441C5DAF4DEC4F6F4DDC4F7F4EA
:10283000000EF86E0800F550250AD8A422EF14F017
:1028400024EF14F0B3EF14F040C5D9F441C5DAF425
:10285000DE2A000EDD22000E05018F6F000E8E6F46
:102860008EC592F59069916940C5D9F441C5DAF4F5
:10287000DEC450F5DDC451F550C5F6F451C5F7F48A
:10288000000EF86E0800F550750AD8A44AEF14F04F
:102890004CEF14F0AAEF14F042C5D9F443C5DAF4B2
:1028A000DFC444F5020EDE26DFC445F5000EDD224E
:1028B00044C5D9F445C5DAF4DEC446F5DDC447F5B0
:1028C00046C548F547C549F54A6A4B6A4C6A4D6AA0
:1028D0004E6A4F6A010E5024446E000E5120456E20
:1028E00040C5D9F441C5DAF444C5DEF445C5DDF48C
:1028F00092EF14F03EC51EF53FC51FF548C520F503
:1029000049C521F54AC522F54BC523F54CC524F52B
:102910004DC525F54EC526F54FC527F530EC13F00E
:10292000C9EF14F050C5F6F451C5F7F4000EF86E77
:102930000800F550446E456A4550000AD8B4A3EF2C
:1029400014F0AAEF14F04450750AD8B47AEF14F0DA
:10295000AAEF14F040C5D9F441C5DAF4DE2A000E1E
:10296000DD22C9EF14F040C5D9F441C5DAF4DEC464
:10297000F6F4DDC4F7F4000EF86E0800F550036EAF
:10298000046A3EC505F53FC506F53CEC17F0AAEF15
:1029900014F01200B1EC1CF00009D8B4D2EF14F01E
:1029A000D4EF14F010EF15F0E1EF14F00AEC1DF085
:1029B0005AEF15F07EEC1DF05AEF15F0000E5AEFAD
:1029C00015F078C50CF579C50DF521EE69F102D841
:1029D000F4EF14F00500FA6EDE50FD6EDE50FE6E70
:1029E000DE50FF6EFA5012000E6E0F6A0F50000A92
:1029F000D8B4FDEF14F0DEEF14F00E50010AD8B495
:102A0000DEEF14F0030AD8B4D6EF14F0010AD8B4FC
:102A1000DAEF14F0070AD8B4DEEF14F0DEEF14F0AA
:102A2000A6EC1CF00009D8B418EF15F01AEF15F059
:102A300059EF15F005018951030B0009D8B423EFB4
:102A400015F025EF15F031EF15F0010E0E6E8951DE
:102A5000030B0F6E0E500F5E89510F18FC0B0F18F1
:102A6000896F83C5D9F484C5DAF4DF50126E834BC5
:102A7000842B8507D8A0860785518611D8A443EFFB
:102A800015F045EF15F04DEF15F014EC18F00E6E43
:102A90000E50106E116A51EF15F0000E116E030EFC
:102AA000106E10C513F5125050EC1DF013505AEF74
:102AB00015F0030E120021EE11F1070EDE6AE80692
:102AC000FDE209500A100B100C100D100E100F1023
:102AD0001010D8B46EEF15F070EF15F0C2EF15F0CE
:102AE000010E196E7EEF15F0D89009360A360B36B6
:102AF0000C360D360E360F361036192A10AE83EF0F
:102B000015F085EF15F074EF15F0D89011361236E8
:102B10001336143615361636173618360950015C3A
:102B20000A5002580B5003580C5004580D500558C9
:102B30000E5006580F50075810500858D8A0A3EF51
:102B400015F0A5EF15F0B6EF15F00950015E0A502B
:102B5000025A0B50035A0C50045A0D50055A0E508D
:102B6000065A0F50075A1050085A1180D890103248
:102B70000F320E320D320C320B320A320932192E5C
:102B800085EF15F011C501F512C502F513C503F562
:102B900014C504F515C505F516C506F517C507F5E1
:102BA00018C508F5120009500A100B100C100D1072
:102BB0000E100F101010D8B4E0EF15F0E2EF15F082
:102BC0002AEF16F0010E116EF0EF15F0D8900936CD
:102BD0000A360B360C360D360E360F361036112AE5
:102BE00010AEF5EF15F0F7EF15F0E6EF15F0095020
:102BF000015C0A5002580B5003580C5004580D50F9
:102C000005580E5006580F50075810500858D8A0B5
:102C10000CEF16F00EEF16F01EEF16F00950015EE5
:102C20000A50025A0B50035A0C50045A0D50055AC0
:102C30000E50065A0F50075A1050085AD8901032AA
:102C40000F320E320D320C320B320A320932112E93
:102C5000F7EF15F001C501F502C502F503C503F54F
:102C600004C504F505C505F506C506F507C507F550
:102C700008C508F51200000EC26E000EC16E000EEF
:102C8000BE6E000EC36E000EBF6E000EC06E070E4D
:102C9000CA6EF60ECB6EC668F90EC76EC868C968F4
:102CA000040118691069E90E086F070E206FF50E10
:102CB000286F0069000E196F000E296F000E216F3A
:102CC000100E096F000E016F000E116F000E020151
:102CD000896F000E886F000E876F000E866F000EE2
:102CE0000401226F000E2A6F000E026F0E0E0A6F93
:102CF000180E126F000E1A6F03690B6913691B69B6
:102D0000070E236F2B6904690C6914691C690F0E87
:102D1000246F2C690A0E0201706F370E0A6F380E8D
:102D20000B6F200E296F290E726F090E716F120042
:102D3000016E010E026E050189B7A1EF16F0A3EF37
:102D400016F0E8EF16F001C582F589958987FC0E2B
:102D500089170F0E876F010E816FF40E806F8989BE
:102D6000040E606F3B0E616F000E626F000E726F9B
:102D7000000E736F040E636F3B0E646F000E656F81
:102D8000000E746F000E756F040E666F3B0E676F5A
:102D9000000E686F000E766F000E776F040E696F7D
:102DA0003B0E6A6F000E6B6F000E786F000E796F2E
:102DB000000E6C6F3B0E6D6F000E6E6F000E7A6F23
:102DC000000E7B6F58EC1DF0D8EC1BF0000E026E6D
:102DD00002501200050189890EEF17F06BEC1DF00F
:102DE000080E3BEF17F06BEC1DF0070E3BEF17F0F2
:102DF0000501852954EC1DF0040E3BEF17F0070E7A
:102E000005018719D8B407EF17F009EF17F00BEF9A
:102E100017F06EEC1DF00F0E3BEF17F072C50CF5BE
:102E200073C50DF502D81FEF17F00500FA6E60515B
:102E3000FD6E6151FE6E6251FF6EFA5012000E6E11
:102E40000F6A0F50000AD8B428EF17F0FFEF16F002
:102E50000E50010AD8B4FFEF16F0030AD8B4F3EF0E
:102E600016F0010AD8B4EEEF16F0070AD8B4F8EF5E
:102E700016F0FFEF16F0120005500610D8B443EF1D
:102E800017F045EF17F04EEF17F005500610D8A4D5
:102E90004CEF17F04EEF17F053EF17F0035032ECF2
:102EA0001DF086EF17F020EE09F00550D9260650E8
:102EB000DA22DE50DE10D8B460EF17F062EF17F0C0
:102EC0007DEF17F020EE09F00550D9260650DA22E2
:102ED00010EE03F00550E1260650E222DE50E65CDB
:102EE000E650800A0B6EDE50800A0B58D8B07BEF9C
:102EF00017F07DEF17F086EF17F020EE03F0055086
:102F0000D9260650DA22DE2A000EDD221200BCECA1
:102F10001CF00009D8A48FEF17F091EF17F094EF91
:102F200017F0040ED1EF17F005018951030B0009CA
:102F3000D8B49DEF17F09FEF17F0ABEF17F0010E2D
:102F4000106E8951030B116E1050115E89511118CA
:102F5000FC0B1118896F8507D8A08607855186114B
:102F6000D8B4B5EF17F0B7EF17F0C3EF17F068EC70
:102F70001DF083C5D9F484C5DAF4DF6E0501834BF7
:102F8000842B91EF17F0EAEC16F0126E68EC1DF04E
:102F900083C5D9F484C5DAF4DF6E0501834B842B35
:102FA00012501200066E015002100310D8B4DBEF6D
:102FB00017F0DDEF17F0F9EF17F00650030D600E74
:102FC000F324D96E050EF420DA6E01C5DEF402C5D5
:102FD000DEF403C5DEF40650020D720EF324D96E42
:102FE000050EF420DA6E04C5DEF405C5DDF413EF3A
:102FF00018F00650030D600EF324D96E050EF42070
:10300000DA6E040EDE6E3B0EDE6E000EDE6E0650D5
:10301000020D720EF324D96E050EF420DA6E000E46
:10302000DE6E000EDD6E12000501898929EF18F0B1
:103030006BEC1DF0070E52EF18F00501852954ECDA
:103040001DF0030E52EF18F06EEC1DF00A0E52EF59
:1030500018F072C50CF573C50DF502D83AEF18F0EB
:103060000500FA6E6051FD6E6151FE6E6251FF6E99
:10307000FA5012000E6E0F6A0F50000AD8B443EFD8
:1030800018F024EF18F00E50010AD8B424EF18F00D
:10309000030AD8B418EF18F0060AD8B41DEF18F0D8
:1030A00024EF18F0120018BE58EF18F05AEF18F07D
:1030B00060EF18F017C51CF518C51DF564EF18F082
:1030C000000E1D6E000E1C6E000E1B6E000E1A6EA2
:1030D00076EF18F0000E046E200E036E13C505F592
:1030E00014C506F53CEC17F01A4A1B2A1C501A5C52
:1030F0001B50800A196E1D50800A1958D8A083EF02
:1031000018F085EF18F06AEF18F015C50CF516C524
:103110000DF513C50EF514C50FF5CEEC1AF012001F
:1031200058EC1DF0020E0501886FA3EF18F00AECB1
:103130001DF0CAEF18F07EEC1DF0CAEF18F0FBECA2
:103140001CF0CAEF18F074C50CF575C50DF521EE2D
:1031500063F102D8B6EF18F00500FA6EDE50FD6E8E
:10316000DE50FE6EDE50FF6EFA5012000E6E0F6AD9
:103170000F50000AD8B4BFEF18F09FEF18F00E50B0
:10318000020AD8B497EF18F0010AD8B49BEF18F0F0
:103190009FEF18F01200000E0201A56F000EA66F3F
:1031A000000EA76F000EA86F000EA96F000EAA6F89
:1031B000B00EAB6F800EAC6F000EAD6F8A0EAE6FAF
:1031C000000EAF6F000EB06F000EB16F000EB26F49
:1031D000000EB36F000E016E000E026E000E036E45
:1031E00018EC1DF0000E016E000E026E000E036E54
:1031F00011EC1DF0000E016E000E026E000E036E4B
:103200001FEC1DF0000E0501936F120082EC1AF006
:1032100005018951030B0009D8B411EF19F013EF20
:1032200019F020EF19F0B1EC1CF00009D8B41BEF35
:1032300019F01DEF19F020EF19F0100E0501876F3E
:1032400005018751030D010EF324F66E260EF420BE
:10325000F76EF86A000EF82202D83CEF19F005006C
:10326000FA6E0900F550FD6E0900F550FE6E09007A
:10327000F550FF6EFA5012000501876F1200FC0E28
:1032800005018917020E886F89954EEF19F07CECC5
:103290001DF075EF19F00F0E75EF19F076C50CF5EE
:1032A00077C50DF521EE66F102D861EF19F0050042
:1032B000FA6EDE50FD6EDE50FE6EDE50FF6EFA508E
:1032C00012000E6E0F6A0F50000AD8B46AEF19F0A0
:1032D0004BEF19F00E50020AD8B447EF19F0010A6B
:1032E000D8B447EF19F04BEF19F01200E8EC1CF0DE
:1032F000CCC55EF5CDC55FF5CFB881EF19F083EF92
:1033000019F07CEF19F012EC1BF006EC1AF0C3B6C2
:103310008CEF19F08FEF19F0010E90EF19F0000EFD
:10332000FF0A5C6E5C465C465C46C3505C18F70B5B
:103330005C18C36E520E5D6E2B0E5C6E000EE82E96
:10334000FED75C2EFCD75D2EFAD700D085EF19F0A2
:10335000FEEFFFF01A6E1A5098EC16F00009D8B480
:10336000B4EF19F0B6EF19F0ABEF19F016C501F58F
:1033700017C502F518C503F519C504F514EC1CF0C2
:10338000000E076E000E086E000E096E000E0A6E2B
:10339000000E0B6E58EC1CF03CEC1DF0C2EC1BF068
:1033A000E806D8B4D6EF19F0D8EF19F0CEEF19F03F
:1033B0001200B5A2DEEF19F0E0EF19F0E2EF19F01C
:1033C00005EF1AF0B5A0E7EF19F0E9EF19F0EBEF10
:1033D00019F005EF1AF002019AA5F1EF19F0F3EFD9
:1033E00019F0F5EF19F005EF1AF09AAFFAEF19F0AE
:1033F000FCEF19F0FEEF19F005EF1AF097A903EFB3
:103400001AF005EF1AF0D9EF19F01200000E166E3F
:10341000000E176E000E196E010E186E680EAAECE3
:1034200019F0BD0E166E050E176E000E196E030E06
:10343000186E680EABEC1AF03A0E0501B56F260E49
:10344000B66FBDC5B7F5BEC5B8F5BFC5B9F5C0C542
:10345000BAF5C1C5BBF5C2C5BCF501EC1CF0120044
:1034600054C558F555C559F544EF1AF052C53EF507
:1034700053C53FF5580E406E050E416E56C542F5D8
:1034800057C543F510EC14F058C5F6F459C5F7F4D8
:10349000000EF86E0800F5500009D8A452EF1AF09B
:1034A00054EF1AF036EF1AF0000E536E000E526E03
:1034B0001200146E010E156E050189B562EF1AF047
:1034C00064EF1AF080EF1AF08985000E156E8551B1
:1034D00054EC1DF01450D8B470EF1AF072EF1AF0DB
:1034E00079EF1AF0040E0501876FABEC1BF07EEF4D
:1034F0001AF0030E0501876F9BEC1CF049EC1CF0E1
:1035000015501200DDEC1CF00009D8B48AEF1AF057
:103510008CEF1AF090EF1AF077EC1DF0AAEF1AF08A
:10352000C7EC1CF00009D8B498EF1AF09AEF1AF023
:103530009EEF1AF071EC1DF0AAEF1AF0D2EC1CF01D
:103540000009D8B4A6EF1AF0A8EF1AF0AAEF1AF003
:1035500074EC1DF012001A6E1A5098EC16F0000967
:10356000D8B4B5EF1AF0B7EF1AF0ACEF1AF016C5F1
:1035700001F517C502F518C503F519C504F514ECD6
:103580001CF040EC1DF0C2EC1BF0E806D8B4CBEF09
:103590001AF0CDEF1AF0C3EF1AF01200000E126EFF
:1035A000000E116EDFEF1AF010C503F5046A0EC5A8
:1035B00005F50FC506F53CEC17F0114A122A11501B
:1035C0000C24D96E12500D20DA6EDF50106E1050A0
:1035D000D8A4EDEF1AF0EFEF1AF0D4EF1AF01200C2
:1035E00020EE02F00C50D9260D50DA22DEC401F58F
:1035F000DDC402F50CC5D9F40DC5DAF4DEC403F55B
:10360000DDC404F514EC1CF0000E076E000E086E0D
:10361000000E096E000E0A6E000E0B6E66EC1CF0BA
:10362000020E1200580E1B6E170E1C6E000E1D6E41
:10363000000E1E6E000E1F6E000E206E000E1D6E20
:10364000000E1E6E580E1F6E170E206E1D0E166E8B
:10365000050E176E000E196E040E186E680EAAEC99
:1036600019F01200F40EF66E3A0EF76E000EF86EB8
:1036700001EECCF110EE04F00900F5C4EEF4E550D3
:10368000E150FAE101EE60F1550EEE6AE806FDE167
:10369000000176EF19F00CC501F50DC502F5000E1D
:1036A000046E010E036E14EC1CF0000E076E000E8B
:1036B000086E000E096E000E0A6E000E0B6E66ECB0
:1036C0001CF0040E12000CC501F50DC502F5000E2C
:1036D000046E020E036E14EC1CF0000E076E000E5A
:1036E000086E000E096E000E0A6E000E0B6E66EC80
:1036F0001CF0020E12000CC501F50DC502F5000EFE
:10370000046E010E036E14EC1CF0000E076E000E2A
:10371000086E000E096E000E0A6E000E0B6E66EC4F
:103720001CF0020E12000CC501F50DC502F5000ECD
:10373000046E020E036E14EC1CF0000E076E000EF9
:10374000086E000E096E000E0A6E000E0B6E66EC1F
:103750001CF0040E120005018951FC0B0209896F4F
:1037600085058611D8A4B7EF1BF0B9EF1BF0BBEFAE
:103770001BF0EAEC16F0D8800501823550EC1DF004
:10378000040E1200010E016E050189B5CAEF1BF08F
:10379000CCEF1BF0D6EF1BF08997826958EC1DF037
:1037A00074EC1CF02CEC1DF088C501F501501200E2
:1037B000020194BFDEEF1BF0E0EF1BF0ECEF1BF01B
:1037C000000E9A6F000E9B6F000E976F8D69510E61
:1037D000896F510E886F948F12005FEC1DF05CECC6
:1037E0001DF00009D8B4F7EF1BF0F9EF1BF0FFEF65
:1037F0001BF0000E54EC1DF0000E50EC1DF0000EFE
:103800001200B70E5A6E050E5B6E000E526E000E61
:10381000536EB5C554F5B6C555F55A0E566E050E20
:10382000576E30EC1AF01200050189A91AEF1CF04E
:103830001CEF1CF025EF1CF001C583F502C584F5D3
:1038400003C585F504C586F589991200000E0001AF
:10385000606F000E616F000E636F000E646F000EEC
:10386000656F000E666F000E676F000E686F1200C6
:10387000040E0201946F800E956F180E966F030E62
:103880009C6F000E9A6F000E9B6F000E976F8D69F4
:1038900012004FEF1CF0D9EC19F006EC19F00501FD
:1038A00089B555EF1CF057EF1CF04BEF1CF01200E0
:1038B00007C501F508C502F509C503F50AC504F5F4
:1038C0000BC505F5020ED2EC17F0120007C501F585
:1038D00008C502F509C503F50AC504F50BC505F5CC
:1038E000000ED2EC17F01200A594A596A590A59213
:1038F00002019B919B959B9F9B9D9B939793979573
:1039000097911200600E0001AD6F000EAF6F000EB8
:10391000B36F080EB16F000EB06F000EAC6F1200E7
:10392000016EB2A296EF1CF098EF1CF091EF1CF024
:1039300001C5A3F2120005018951FC0B0209896F30
:103940008251822550EC1DF0030E1200020199BB3A
:10395000ACEF1CF0AFEF1CF0010EB0EF1CF0000E4E
:103960001200020195BBB7EF1CF0BAEF1CF0010E7C
:10397000BBEF1CF0000E1200020199B1C2EF1CF067
:10398000C5EF1CF0010EC6EF1CF0000E1200020184
:103990009AB5CDEF1CF0D0EF1CF0010ED1EF1CF06A
:1039A000000E1200020197B9D8EF1CF0DBEF1CF0FB
:1039B000010EDCEF1CF0000E120002019ABFE3EFD3
:1039C0001CF0E6EF1CF0010EE7EF1CF0000E1200F9
:1039D00026EC1CF038EC1CF03BEC16F082EC1CF0F2
:1039E000CBEC18F0120037EC1DF005018995020EA2
:1039F000886F0F0E120037EC1DF005018995000E3F
:103A0000886F0F0E120062EC1DF05FEC1DF026ECCB
:103A10001DF012000501855154EC1DF0ABEC1BF0BC
:103A2000120001C5C6F502C5C7F503C5C8F51200E9
:103A300001C5C9F502C5CAF503C5CBF5120001C51C
:103A4000C3F502C5C4F503C5C5F512000501899586
:103A5000000E886F0F0E12000201949F000E9A6FE5
:103A600099851200026E025090EC1CF012000201C7
:103A7000949F9985948F1200000E59EC1AF0120051
:103A8000010E59EC1AF0120062EC1DF0090E120042
:103A900065EC1DF0040E120065EC1DF0030E120023
:103AA000016E01C58CF21200016E01C58DF212008B
:103AB000000E02019A6F120002018D5112000201E4
:103AC000949B12000201958D12000201959D120037
:103AD00002018B5112000201948D12000201949D8B
:103AE000120002019A951200020197991200020138
:103AF0009A9F12001414113A010E1200020E1200C5
:083B0000050E1200010E120077
:020000040001F9
:04FFFC0032EF1BF0D5
:020000040020DA
:10000000FF0FFF0FFF0FFF0FFF0FFF0FFF0FFF0F80
:10001000FF0FFF0FFF0FFF0FFF0FFF0FFF0FFF0F70
:10002000FF0FFF0FFF0FFF0FFF0FFF0FFF0FFF0F60
:10003000FF0FFF0FFF0FFF0FFF0FFF0FFF0FFF0F50
:020000040030CA
:0A0000008CFFF7FF9FFFFFFFFFFFDB
:00000001FF
