:04000000FEEFFFF020
:0B2600000025632563256325630000AF
:10260C0016C5D9F417C5DAF4DEC4F6F4DDC4F7F454
:10261C00000EF86E0800F550250AD8A418EF13F038
:10262C001AEF13F069EF13F016C5D9F417C5DAF4E5
:10263C00DE2A000EDD22000E3A6E000E396E39C510
:10264C003DF53B683C6816C5D9F417C5DAF4DEC411
:10265C00F6F4DDC4F7F4000EF86E0800F550630ACA
:10266C00D8A43BEF13F03DEF13F060EF13F016C559
:10267C00D9F417C5DAF4DE2A000EDD2218C5D9F418
:10268C0019C5DAF4DFC41AF5020EDE26DFC41BF519
:10269C00000EDD221AC5D9F41BC5DAF4DF501C6E0E
:1026AC0014C50CF515C50DF51CC50EF5D4EC13F0C1
:1026BC007FEF13F016C5D9F417C5DAF4DE2A000E35
:1026CC00DD227FEF13F016C5D9F417C5DAF4DEC49A
:1026DC00F6F4DDC4F7F4000EF86E0800F550036E46
:1026EC00046A14C505F515C506F521EC14F060EF68
:1026FC0013F01200000EC26E000EC16E000EBE6E04
:10270C00000EC36E000EBF6E000EC06E070ECA6EBA
:10271C00F60ECB6EC668C768C868C968040118692C
:10272C001069EF0E086F070E206FF40E286F00690A
:10273C00000E196F000E296F000E216F100E096F1D
:10274C00000E016F000E116F000E0201896F000E5A
:10275C00886F000E876F000E866F000E0401226FCB
:10276C00000E2A6F000E026F000E0A6F000E126F21
:10277C00000E1A6F03690B6913691B69070E236F2F
:10278C002B6904690C6914691C690F0E246F2C6980
:10279C00200E0201296F290E726F120039503A1067
:1027AC00D8A4DBEF13F0DDEF13F0E3EF13F039C532
:1027BC0012F53AC513F5E9EF13F0FF0E3924126E3A
:1027CC00FF0E3A20136E13BEEEEF13F0F0EF13F082
:1027DC00F2EF13F0F6EF13F0000E136E000E126E04
:1027EC00000E116E000E106E08EF14F0000E046E49
:1027FC00200E036E0CC505F50DC506F521EC14F085
:10280C00104A112A1250105C1150800A0F6E13508E
:10281C00800A0F58D8A015EF14F017EF14F0FCEF46
:10282C0013F00EC503F5046A0CC505F50DC506F5C8
:10283C0021EC14F0120005500610D8B428EF14F057
:10284C002AEF14F033EF14F005500610D8A431EF32
:10285C0014F033EF14F038EF14F00350AEEC15F025
:10286C006BEF14F020EE09F00550D9260650DA2251
:10287C00DE50DE10D8B445EF14F047EF14F062EFE1
:10288C0014F020EE09F00550D9260650DA2210EE8D
:10289C0003F00550E1260650E222DE50E65CE650DD
:1028AC00800A0B6EDE50800A0B58D8B060EF14F023
:1028BC0062EF14F06BEF14F020EE03F00550D92604
:1028CC000650DA22DE2A000EDD221200000E020172
:1028DC00A56F000EA66F000EA76F000EA86F000E5E
:1028EC00A96F000EAA6FB00EAB6F800EAC6F000E0E
:1028FC00AD6F8A0EAE6F000EAF6F000EB06F000E94
:10290C00B16F000EB26F000EB36F000E016E000EB1
:10291C00026E000E036EA0EC15F0000E016E000EA0
:10292C00026E000E036E99EC15F0000E016E000E97
:10293C00026E000E036EA7EC15F0000E3E6E120038
:10294C00000E0301D96F000EDA6F000EDB6F000E64
:10295C00DC6F000EDF6F000EE06F000EE56F000EF7
:10296C00E76F000EEC6F000EEE6F000EEF6F000EB7
:10297C00F06F000EF16F000EF26F000EF46F100E80
:10298C00F56F000EF66F000EF76F000EF86F000E6D
:10299C00F96F1F0EFA6F840EF36F12008EEC15F0A8
:1029AC00000E29EC15F001C533F502C534F5010E06
:1029BC00256E260E266E000E286E000E276E3350E6
:1029CC00296E2A6A34502B6E2C6A000E2E6E2D68DE
:1029DC0041EC15F0090E326E1E0E316EE40EE82E2F
:1029EC00FED7312EFCD7322EFAD700D0D6EF14F00A
:1029FC00FEEFFFF01FC523F520C524F514EF15F0ED
:102A0C001DC514F51EC515F5230E166E050E176E95
:102A1C0021C518F522C519F506EC13F023C5F6F4FB
:102A2C0024C5F7F4000EF86E0800F5500009D8A480
:102A3C0022EF15F024EF15F006EF15F0000E1E6EC8
:102A4C00000E1D6E1200056E05C5ECF30301F38F2D
:102A5C00F39DF381F3B135EF15F037EF15F030EF4F
:102A6C0015F0EB51046E036AEA510324016E000E5B
:102A7C000420026E1200270E2F6E050E306E000E13
:102A8C001D6E000E1E6E25C51FF526C520F52F0EDA
:102A9C00216E050E226E00EC15F01200000E0001E6
:102AAC00606F000E616F000E636F000E646F000E9E
:102ABC00656F000E666F000E676F000E686F120078
:102ACC0001EE60F1200EEE6AE806FDE101EE35F153
:102ADC000A0EEE6AE806FDE10001D4EF14F0600E78
:102AEC000001AD6F000EAF6F000EB36F080EB16F2B
:102AFC00000EB06F000EAC6F1200016EB2A289EF27
:102B0C0015F08BEF15F084EF15F001C5A3F2120050
:102B1C0054EC15F080EC13F075EC15F0A6EC14F0F9
:102B2C006CEC14F0120001C542F502C543F503C567
:102B3C0044F5120001C545F502C546F503C547F538
:102B4C00120001C53FF502C540F503C541F5120061
:0A2B5C00026E025083EC15F0120027
:020000040001F9
:04FFFC0066EF15F0A7
:020000040020DA
:10000000FF0FFF0FFF0FFF0FFF0FFF0FFF0FFF0F80
:10001000FF0FFF0FFF0FFF0FFF0FFF0FFF0FFF0F70
:10002000FF0FFF0FFF0FFF0FFF0FFF0FFF0FFF0F60
:10003000FF0FFF0FFF0FFF0FFF0FFF0FFF0FFF0F50
:020000040030CA
:0A0000008CFFF7FF9FFFFFFFFFFFDB
:00000001FF
