:040000007DEF02F09E
:100400003E013E013E013E013E013E013E013E01F4
:1004100063013E013E013E013E013E013E013E01BF
:100420003E013E013E013E013E013E013E013E01D4
:100430003E013E013E013E013E013E013E013E01C4
:100440003E013E013E013E013E013E013E013E01B4
:100450003E013E013E013E013E013E013E013E01A4
:1004600040013E013E013E013E013E013E013E0192
:100470003E013E013E013E013E013E013E013E0184
:100480003E013E013E013E013E013E013E013E0174
:100490003E013E013E013E013E013E013E013E0164
:1004A0003E013E013E013E013E013E013E013E0154
:1004B0003E013E013E013E013E013E013E013E0144
:1004C0003E013E013E013E013E013E013E013E0134
:1004D0003E013E013E013E013E013E013E013E0124
:1004E0003E013E013E013E013E013E013E013E0114
:0E04F0003E013E013E013E01FF00F4EF02F02E
:10050000D8C403F5B4A087EF02F089EF02F0A2EFA0
:1005100002F0000E096E130E096491EF02F093EFE2
:1005200002F095EF02F0A1EF02F0080EC31AD00E10
:10053000026ECA0EE82EFED7022EFCD7092A8BEFD8
:1005400002F0B49003C5D8F41100030EC712FC0EDC
:1005500004010817030E0913FC0E0C17030E0B13EE
:10056000FC0E0A179F80AF9003016381A480B490B2
:100570006891D68AD68ED68CD69E000E04015F6F07
:10058000040E5E6F000E5D6FD68E1200AFA0CBEF33
:1005900002F0CDEF02F0E6EF02F0000E0A6E130E4D
:1005A0000A64D5EF02F0D7EF02F0D9EF02F0E5EFE1
:1005B00002F0080EC31A2A0E016E8E0EE82EFED728
:1005C000012EFCD70A2ACFEF02F0AF901100CB9694
:1005D0000401289729972C972B872A97C788089971
:1005E00009890C990B8912000A6A096A0401000E34
:1005F0005D6F040E5E6F000E5F6F000100EF03F091
:100600000AEC03F0E7EC02F0A5EC02F006EF03F0D1
:100610007DEF02F0600E0001AD6F080EB16F1200A9
:020000040020DA
:10000000FF0FFF0FFF0FFF0FFF0FFF0FFF0FFF0F80
:10001000FF0FFF0FFF0FFF0FFF0FFF0FFF0FFF0F70
:10002000FF0FFF0FFF0FFF0FFF0FFF0FFF0FFF0F60
:10003000FF0FFF0FFF0FFF0FFF0FFF0FFF0FFF0F50
:020000040030CA
:0A0000008CDDFFFF9FFFDFFFFFFF15
:00000001FF
