:04000000FEEFFFF020
:10260000006A270000000000000000000000000039
:102610000000000000000000002C28000000000066
:10262000000EBE6E060EBF6E000EC06E000EC16EB6
:10263000000EC26E000EC36EC668F90EC76EC86883
:10264000C9680F0ECA6EF70ECB6E04010069F90E51
:10265000086F10691869070E206FF70E286F000EBB
:10266000016F000E096F000E116F000E196F000E42
:10267000216F000E296F000E0201896F000E886F16
:10268000000E876F000E866F000E0401026F060EAB
:102690000A6F000E126F000E1A6F000E226F000EEE
:1026A0002A6F03690B6913691B69070E236F2B6976
:1026B00004690C6914691C690F0E246F2C69090EDA
:1026C0000201716F370E0A6F0A0E706F380E0B6FB2
:1026D000000E0401056F000E066F000E076F000E5E
:1026E0000D6F000E0E6F000E0F6F000E156F000EB7
:1026F000166F000E176F000E256F000E266F000E6E
:10270000276F120035EC14F0D68E21C51FF522C5B7
:1027100020F50201948B600E8C6F100E8C6F100EE2
:102720008C6F949BC3B697EF13F09AEF13F0010EE2
:102730009BEF13F0000EFF0A1D6E1D461D461D4641
:10274000C3501D18F70B1D18C36E090E1E6E1E0E0A
:102750001D6EE40EE82EFED71D2EFCD71E2EFAD7D6
:1027600000D089EF13F0FEEFFFF0040E0201946F2A
:10277000800E956F080E966F030E9C6F000E9A6F79
:10278000000E9B6F000E976F000E8D6F510E896FBC
:10279000510E886F948F050EE82EFED700F000F0E2
:1027A00000F000F000F000F000F002019A919A951C
:1027B000000E1A6E000E1B6E000E1C6E16EC14F04E
:1027C0001200D69AAF90D680000E1A6E000E1B6EC5
:1027D000000E1C6E4CEC14F0B490D682000E1A6EF3
:1027E000000E1B6E000E1C6E45EC14F0B890D684E3
:1027F000000E1A6E000E1B6E000E1C6E3EEC14F0E6
:102800001200A60EF66E280EF76E000EF86E090086
:10281000F5C421F50900F5C422F501EE01F1190E08
:10282000EE6AE806FDE1000182EF13F01A501B107A
:102830001C10D8B41EEF14F020EF14F026EF14F0A3
:102840001AC517F51BC518F51CC519F51200600E41
:102850000001AD6F000EAF6F000EB36F080EB16FC9
:10286000000EB06F000EAC6F120027EC14F010ECED
:1028700013F0B5EC13F0E1EC13F012001AC50EF5ED
:102880001BC50FF51CC510F512001AC511F51BC5A7
:1028900012F51CC513F512001AC514F51BC515F564
:0828A0001CC516F5120014140A
:020000040001F9
:04FFFC0001EF14F00D
:020000040020DA
:10000000FF0FFF0FFF0FFF0FFF0FFF0FFF0FFF0F80
:10001000FF0FFF0FFF0FFF0FFF0FFF0FFF0FFF0F70
:10002000FF0FFF0FFF0FFF0FFF0FFF0FFF0FFF0F60
:10003000FF0FFF0FFF0FFF0FFF0FFF0FFF0FFF0F50
:020000040030CA
:0A000000FFFFF7FF9FFFFFFFFFFF68
:00000001FF
