:04000000FEEFFFF020
:1026000000502900000000000000AE2C0000000077
:10261000602B00000000000000000000000000002F
:1026200000000000000000000000000000000000AA
:1026300000000000000000000000000000F42B007B
:10264000D22B00B02B0000000025632563256325F5
:0326500063000024
:1026540016C5D9F417C5DAF4DEC4F6F4DDC4F7F40C
:10266400000EF86E0800F550250AD8A43CEF13F0CC
:102674003EEF13F08DEF13F016C5D9F417C5DAF455
:10268400DE2A000EDD22000E4A6E000E496E49C598
:102694004FF54B684C6816C5D9F417C5DAF4DEC497
:1026A400F6F4DDC4F7F4000EF86E0800F550630A82
:1026B400D8A45FEF13F061EF13F084EF13F016C5A5
:1026C400D9F417C5DAF4DE2A000EDD2218C5D9F4D0
:1026D40019C5DAF4DFC41AF5020EDE26DFC41BF5D1
:1026E400000EDD221AC5D9F41BC5DAF4DF501C6EC6
:1026F40014C50CF515C50DF51CC50EF510EC14F03C
:10270400A3EF13F016C5D9F417C5DAF4DE2A000EC8
:10271400DD22A3EF13F016C5D9F417C5DAF4DEC42D
:10272400F6F4DDC4F7F4000EF86E0800F550036EFD
:10273400046A14C505F515C506F55DEC14F084EFBF
:1027440013F01200000EBE6E000EBF6E000EC06EBF
:10275400000EC16E000EC26E000EC36EC668C7685E
:10276400C868C9680F0ECA6EFE0ECB6E04010069FC
:10277400086910691869070E206FFC0E286F000E97
:10278400016F000E096F000E116F000E196F000E1D
:10279400216F000E296F000E0201896F000E886FF1
:1027A400000E876F000E866F000E0401026F000E8C
:1027B4000A6F000E126F000E1A6F000E226F000EC9
:1027C4002A6F03690B6913691B69070E236F2B6951
:1027D40004690C6914691C690F0E246F2C69290E95
:1027E4000201726F200E296F000E0401056F000EA6
:1027F400066F000E076F000E0D6F000E0E6F000EB9
:102804000F6F000E156F000E166F000E176F000E7F
:10281400256F000E266F000E276F120049504A10D4
:10282400D8A417EF14F019EF14F01FEF14F049C5F2
:1028340012F54AC513F525EF14F0FF0E4924126E64
:10284400FF0E4A20136E13BE2AEF14F02CEF14F07F
:102854002EEF14F032EF14F0000E136E000E126E11
:10286400000E116E000E106E44EF14F0000E046E94
:10287400200E036E0CC505F50DC506F55DEC14F0D0
:10288400104A112A1250105C1150800A0F6E135016
:10289400800A0F58D8A051EF14F053EF14F038EF1A
:1028A40014F00EC503F5046A0CC505F50DC506F54F
:1028B4005DEC14F0120005500610D8B464EF14F067
:1028C40066EF14F06FEF14F005500610D8A46DEF06
:1028D40014F06FEF14F074EF14F003501AEC16F0C8
:1028E400A7EF14F020EE09F00550D9260650DA229D
:1028F400DE50DE10D8B481EF14F083EF14F09EEFB5
:1029040014F020EE09F00550D9260650DA2210EE14
:1029140003F00550E1260650E222DE50E65CE65064
:10292400800A0B6EDE50800A0B58D8B09CEF14F06E
:102934009EEF14F0A7EF14F020EE03F00550D92613
:102944000650DA22DE2A000EDD221200000E0201F9
:10295400A16F000EA26F000EA36F000EA46F000EF5
:10296400A56F000EA66F000EA76F000EA86F000ED5
:10297400A96F000EAA6FB00EAB6F800EAC6F080E7D
:10298400AD6F820EAE6F060EAF6F200EB06F000EED
:10299400B16F800EB26F000EB36F000E016E000EA9
:1029A400026E000E036EFAEC15F0000E016E000EBE
:1029B400026E000E036EE9EC15F0000E016E000EBF
:1029C400026E000E036ED8EC15F0000E4E6E000E73
:1029D4004D6E120037EC16F0000E98EC15F001C5A0
:1029E40033F502C534F5020E98EC15F001C535F542
:1029F40002C536F5490E256E260E266E000E286E8B
:102A0400000E276E3350296E2A6A34502B6E2C6ABE
:102A1400000E2E6E2D68C5EC15F0110E326E3C0EB4
:102A2400316ECB0EE82EFED7312EFCD7322EFAD7DC
:102A340000F0EEEF14F0FEEFFFF0000E0301D96F8B
:102A4400000EDA6F000EDB6F000EDC6F000EDF6F1E
:102A5400000EE06F000EE56F000EE76F000EEC6FE6
:102A6400000EEE6F000EEF6F000EF06F000EF16FB0
:102A7400000EF26F000EF46F100EF56F000EF66F7D
:102A8400000EF76F000EF86F000EF96F1F0EFA6F4D
:102A9400840EF36FAF94B09012001FC523F520C5C8
:102AA40024F563EF15F01DC514F51EC515F5230EA9
:102AB400166E050E176E21C518F522C519F52AECF8
:102AC40013F023C5F6F424C5F7F4000EF86E0800DD
:102AD400F5500009D8A471EF15F073EF15F055EF18
:102AE40015F0000E1E6E000E1D6E1200D69AAF90E9
:102AF400D680000E016E000E026E000E036E50ECC6
:102B040016F0B490D682000E016E000E026E000E16
:102B1400036E49EC16F0B890D684000E016E000ED8
:102B2400026E000E036E42EC16F01200056E05C52F
:102B3400ECF30301F38FF39DF381F3B1A4EF15F0EC
:102B4400A6EF15F09FEF15F0EB51046E036AEA51FE
:102B54000324016E000E0420026E1200000E016EAA
:102B64000201B0ABB8EF15F0BAEF15F0C3EF15F0F2
:102B7400ABABBFEF15F0C1EF15F0C3EF15F0010ECD
:102B8400016E01501200270E2F6E050E306E000EDE
:102B94001D6E000E1E6E25C51FF526C520F52F0ED1
:102BA400216E050E226E4FEC15F01200015002103A
:102BB4000310D8B4E0EF15F0E2EF15F0E8EF15F0EC
:102BC40001C537F502C538F503C539F512000150C2
:102BD40002100310D8B4F1EF15F0F3EF15F0F9EF8C
:102BE40015F001C53AF502C53BF503C53CF51200E5
:102BF400015002100310D8B402EF16F004EF16F0DF
:102C04000AEF16F001C53DF502C53EF503C53FF5D3
:102C1400120001EE60F1200EEE6AE806FDE101EE1D
:102C240033F11D0EEE6AE806FDE10001ECEF14F04D
:102C3400026EB0EC15F00009D8B423EF16F025EFBE
:102C440016F01BEF16F0025057EC16F01200600E4F
:102C54000001AD6F000EAF6F000EB36F080EB16FC1
:102C6400000EB06F000EAC6F120029EC16F0A4EC4D
:102C740013F01FEC15F0A8EC14F078EC15F012002A
:102C840001C540F502C541F503C542F5120001C571
:102C940043F502C544F503C545F5120001C546F5E3
:102CA40002C547F503C548F51200016E01C5A3F23C
:022CB40012000C
:020000040001F9
:04FFFC000BEF16F001
:020000040020DA
:10000000FF0FFF0FFF0FFF0FFF0FFF0FFF0FFF0F80
:10001000FF0FFF0FFF0FFF0FFF0FFF0FFF0FFF0F70
:10002000FF0FFF0FFF0FFF0FFF0FFF0FFF0FFF0F60
:10003000FF0FFF0FFF0FFF0FFF0FFF0FFF0FFF0F50
:020000040030CA
:0A000000FFFFF7FF9FFFFFFFFFFF68
:00000001FF
