:04000000FEEFFFF020
:1026000000542900000000000000BE2C0000000063
:10261000702B00000000000000000000000000001F
:1026200000000000000000000000000000000000AA
:1026300000000000000000000000000000042C006A
:10264000E22B00C02B0000000025632563256325D5
:072650006325632563000010
:1026580016C5D9F417C5DAF4DEC4F6F4DDC4F7F408
:10266800000EF86E0800F550250AD8A43EEF13F0C6
:1026780040EF13F08FEF13F016C5D9F417C5DAF44D
:10268800DE2A000EDD22000E4E6E000E4D6E4DC588
:1026980053F54F68506816C5D9F417C5DAF4DEC487
:1026A800F6F4DDC4F7F4000EF86E0800F550630A7E
:1026B800D8A461EF13F063EF13F086EF13F016C59B
:1026C800D9F417C5DAF4DE2A000EDD2218C5D9F4CC
:1026D80019C5DAF4DFC41AF5020EDE26DFC41BF5CD
:1026E800000EDD221AC5D9F41BC5DAF4DF501C6EC2
:1026F80014C50CF515C50DF51CC50EF512EC14F036
:10270800A5EF13F016C5D9F417C5DAF4DE2A000EC2
:10271800DD22A5EF13F016C5D9F417C5DAF4DEC427
:10272800F6F4DDC4F7F4000EF86E0800F550036EF9
:10273800046A14C505F515C506F55FEC14F086EFB7
:1027480013F01200000EBE6E000EBF6E000EC06EBB
:10275800000EC16E000EC26E000EC36EC668C7685A
:10276800C868C9680F0ECA6EFE0ECB6E04010069F8
:10277800086910691869070E206FFC0E286F000E93
:10278800016F000E096F000E116F000E196F000E19
:10279800216F000E296F000E0201896F000E886FED
:1027A800000E876F000E866F000E0401026F000E88
:1027B8000A6F000E126F000E1A6F000E226F000EC5
:1027C8002A6F03690B6913691B69070E236F2B694D
:1027D80004690C6914691C690F0E246F2C69290E91
:1027E8000201726F200E296F000E0401056F000EA2
:1027F800066F000E076F000E0D6F000E0E6F000EB5
:102808000F6F000E156F000E166F000E176F000E7B
:10281800256F000E266F000E276F12004D504E10C8
:10282800D8A419EF14F01BEF14F021EF14F04DC5E4
:1028380012F54EC513F527EF14F0FF0E4D24126E56
:10284800FF0E4E20136E13BE2CEF14F02EEF14F073
:1028580030EF14F034EF14F0000E136E000E126E09
:10286800000E116E000E106E46EF14F0000E046E8E
:10287800200E036E0CC505F50DC506F55FEC14F0CA
:10288800104A112A1250105C1150800A0F6E135012
:10289800800A0F58D8A053EF14F055EF14F03AEF10
:1028A80014F00EC503F5046A0CC505F50DC506F54B
:1028B8005FEC14F0120005500610D8B466EF14F05F
:1028C80068EF14F071EF14F005500610D8A46FEFFC
:1028D80014F071EF14F076EF14F0035022EC16F0B8
:1028E800A9EF14F020EE09F00550D9260650DA2297
:1028F800DE50DE10D8B483EF14F085EF14F0A0EFAB
:1029080014F020EE09F00550D9260650DA2210EE10
:1029180003F00550E1260650E222DE50E65CE65060
:10292800800A0B6EDE50800A0B58D8B09EEF14F068
:10293800A0EF14F0A9EF14F020EE03F00550D9260B
:102948000650DA22DE2A000EDD221200000E0201F5
:10295800A16F000EA26F000EA36F000EA46F000EF1
:10296800A56F000EA66F000EA76F000EA86F000ED1
:10297800A96F000EAA6FB00EAB6F800EAC6F080E79
:10298800AD6F820EAE6F060EAF6F200EB06F000EE9
:10299800B16F800EB26F000EB36F000E016E000EA5
:1029A800026E000E036E02EC16F0000E016E000EB1
:1029B800026E000E036EF1EC15F0000E016E000EB3
:1029C800026E000E036EE0EC15F0000E526E000E63
:1029D800516E12003FEC16F0000EA0EC15F001C588
:1029E80037F502C538F5020EA0EC15F001C539F52A
:1029F80002C53AF5490E256E260E266E000E286E83
:102A0800000E276E3750296E2A6A38502B6E2C6AB2
:102A180039502D6E2E6A3A502F6E306A000E326E83
:102A28003168CDEC15F0110E366E3C0E356ECB0EBE
:102A3800E82EFED7352EFCD7362EFAD700F0F0EF69
:102A480014F0FEEFFFF0000E0301D96F000EDA6FED
:102A5800000EDB6F000EDC6F000EDF6F000EE06F04
:102A6800000EE56F000EE76F000EEC6F000EEE6FC4
:102A7800000EEF6F000EF06F000EF16F000EF26F98
:102A8800000EF46F100EF56F000EF66F000EF76F64
:102A9800000EF86F000EF96F1F0EFA6F840EF36FB9
:102AA800AF94B09012001FC523F520C524F56BEF35
:102AB80015F01DC514F51EC515F5230E166E050E69
:102AC800176E21C518F522C519F52CEC13F023C58E
:102AD800F6F424C5F7F4000EF86E0800F550000966
:102AE800D8A479EF15F07BEF15F05DEF15F0000E27
:102AF8001E6E000E1D6E1200D69AAF90D680000E84
:102B0800016E000E026E000E036E58EC16F0B490C3
:102B1800D682000E016E000E026E000E036E51EC9E
:102B280016F0B890D684000E016E000E026E000EEC
:102B3800036E4AEC16F01200056E05C5ECF30301AE
:102B4800F38FF39DF381F3B1ACEF15F0AEEF15F011
:102B5800A7EF15F0EB51046E036AEA510324016EE6
:102B6800000E0420026E1200000E016E0201B0ABCE
:102B7800C0EF15F0C2EF15F0CBEF15F0ABABC7EF18
:102B880015F0C9EF15F0CBEF15F0010E016E0150ED
:102B98001200270E336E050E346E000E1D6E000EE9
:102BA8001E6E25C51FF526C520F5330E216E050EB0
:102BB800226E57EC15F01200015002100310D8B421
:102BC800E8EF15F0EAEF15F0F0EF15F001C53BF569
:102BD80002C53CF503C53DF5120001500210031073
:102BE800D8B4F9EF15F0FBEF15F001EF16F001C5B9
:102BF8003EF502C53FF503C540F51200015002102D
:102C08000310D8B40AEF16F00CEF16F012EF16F016
:102C180001C541F502C542F503C543F5120001EEB1
:102C280060F1200EEE6AE806FDE101EE37F11D0EB7
:102C3800EE6AE806FDE10001EEEF14F0026EB8EC72
:102C480015F00009D8B42BEF16F02DEF16F023EF8E
:102C580016F002505FEC16F01200600E0001AD6F26
:102C6800000EAF6F000EB36F080EB16F000EB06F9D
:102C7800000EAC6F120031EC16F0A6EC13F027EC46
:102C880015F0AAEC14F080EC15F0120001C544F51B
:102C980002C545F503C546F5120001C547F502C54D
:102CA80048F503C549F5120001C54AF502C54BF5BB
:0E2CB80003C54CF51200016E01C5A3F2120017
:020000040001F9
:04FFFC0013EF16F0F9
:020000040020DA
:10000000FF0FFF0FFF0FFF0FFF0FFF0FFF0FFF0F80
:10001000FF0FFF0FFF0FFF0FFF0FFF0FFF0FFF0F70
:10002000FF0FFF0FFF0FFF0FFF0FFF0FFF0FFF0F60
:10003000FF0FFF0FFF0FFF0FFF0FFF0FFF0FFF0F50
:020000040030CA
:0A000000FFFFF7FF9FFFFFFFFFFF68
:00000001FF
