:040000007DEF02F09E
:100400003E013E013E013E013E013E013E013E01F4
:100410003E013E013E013E013E013E013E013E01E4
:100420003E013E013E013E013E013E013E013E01D4
:100430003E013E013E013E013E013E013E016F0193
:100440003E013E013E013E013E013E013E013E01B4
:100450003E013E013E013E013E013E013E013E01A4
:1004600077013E013E013E013E013E013E013E015B
:100470003E013E013E013E013E013E013E013E0184
:100480003E013E013E013E013E013E013E013E0174
:100490003E013E013E013E013E013E013E013E0164
:1004A0003E013E013E013E013E013E013E013E0154
:1004B0003E013E013E013E013E013E013E013E0144
:1004C0003E013E013E013E013E013E013E013E0134
:1004D0003E013E013E013E013E013E013E013E0124
:1004E0003E013E013E013E013E013E013E013E0114
:1004F0003E013E013E013E01FF00CAEF02F0036EE5
:1005000096EF02F003011A9F1A891A9B1B511F0BC9
:1005100040091B6F1B991B51F00B06091B6F6D0ED9
:10052000196F830E186F1A8FABEF02F00350016E34
:10053000026A0250000AD8B4A0EF02F0ABEF02F05A
:100540000150000AD8B4ABEF02F0010AD8B482EF30
:1005500002F0ABEF02F01200D68AD68ED68CA18EB6
:10056000B19E0301658FD69E000E04015F6F040EDD
:100570005E6F000E5D6FD68E1200E7EC02F0D4ECD9
:1005800002F0ACEC02F0010E7FEC02F0C6EF02F0DC
:100590007DEF02F00401000E5D6F040E5E6F000E31
:1005A0005F6F0001BDEF02F0CB96040128972997F9
:0A05B0002C972B872A97C3961200A0
:1005BC00080EC31AB19E6D0E0301196F830E186FCE
:0E05CC001100600E0001AD6F080EB16F12003D
:0205DC0011000C
:020000040020DA
:10000000FF0FFF0FFF0FFF0FFF0FFF0FFF0FFF0F80
:10001000FF0FFF0FFF0FFF0FFF0FFF0FFF0FFF0F70
:10002000FF0FFF0FFF0FFF0FFF0FFF0FFF0FFF0F60
:10003000FF0FFF0FFF0FFF0FFF0FFF0FFF0FFF0F50
:020000040030CA
:0A0000008CDDFFFF9FFFDFFFFFFF15
:00000001FF
