:04000000FEEFFFF020
:1025000000504F5354202F6170692F76312E362F93
:10251000646576696365732F64737069632F3F74B4
:102520006F6B656E3D424246462D375A4D347844B6
:1025300044315745505154703950754B5376725051
:1025400046695663456C643220485454502F312EEE
:1025500031486F73743A20696E647573747269617F
:102560006C2E6170692E756269646F74732E636F6F
:102570006D436F6E74656E742D547970653A206189
:1025800070706C69636174696F6E2F6A736F6E43EC
:102590006F6E74656E742D4C656E6774683A20209A
:1025A0003533004269656E76656E69646F732061CC
:1025B0006C20637572736F0A0D0050494320454EBD
:1025C000204320554D414B45520A0D00454E56497A
:1025D0004F204445204441544F5300486F6C6120C4
:0925E0006D756E646F0A0D0000B8
:1025EA006100BCF4D9F46100C0F4DAF4DEC4F6F494
:1025FA00DDC4F7F40800F550250AD8A407EF13F054
:10260A0009EF13F058EF13F06100BCF4D9F461003C
:10261A00C0F4DAF4DE2A000EDD22000E1F6E000E70
:10262A001E6E1EC522F51FC523F5206821686100AC
:10263A00BCF4D9F46100C0F4DAF4DEC4F6F4DDC403
:10264A00F7F40800F550250AD8A42EEF13F030EF5E
:10265A0013F049EF13F06100BCF4D9F46100C0F43F
:10266A00DAF4DE2A000EDD22000E256E250E246E17
:10267A002DC526F52EC527F5C6EC13F0000E2E6ED5
:10268A00010E2D6E77EF13F06100BCF4D9F46100EE
:10269A00C0F4DAF4DE2A000EDD22000E2E6E000EE1
:1026AA002D6E77EF13F06100BCF4D9F46100C0F429
:1026BA00DAF4DEC4F6F4DDC4F7F40800F550246E4B
:1026CA00256A2DC526F52EC527F5C6EC13F061003F
:1026DA00BCF4D9F46100C0F4DAF4DE2A000EDD227B
:1026EA0043EF13F0120000F0DB0E3B6E250E3C6E3A
:1026FA0055EC14F0A30E3B6E250E3C6E55EC14F00F
:10270A00BA0E3B6E250E3C6E55EC14F000F0CC0E62
:10271A00016E250E026E140E046E690E036E000E13
:10272A00066EFA0E056E100E086EF00E076EB80EE3
:10273A00166E1E0E176ECD0E186E420E196E010E13
:10274A00096E010E0A6E000E0B6E010E0C6E000E63
:10275A000D6E8B0E0E6EEC0E0F6EDA0E106E410EB3
:10276A00116E230E126EBB0E136EAE0E146E420E57
:10277A00156E010E1A6E250E1B6EC2EF13F0FEEFD8
:10278A00FFF026502710D8B4CDEF13F0CFEF13F097
:10279A00D8EF13F026502710D8A4D6EF13F0D8EFAD
:1027AA0013F0DDEF13F0245068EC14F010EF14F07E
:1027BA0020EE04F02650D9262750DA22DE50DE1009
:1027CA00D8B4EAEF13F0ECEF13F007EF14F020EEB1
:1027DA0004F02650D9262750DA2210EE02F02650AD
:1027EA00E1262750E222DE50E65CE650800A2C6E93
:1027FA00DE50800A2C58D8B005EF14F007EF14F019
:10280A0010EF14F020EE02F02650D9262750DA22D3
:10281A00DE2A000EDD22120035C539F536C53AF535
:10282A00000E1D6E000E1C6E2DEF14F033C52DF533
:10283A0034C52EF5390E2F6E050E306E37C531F5BB
:10284A0038C532F5F5EC12F02D501C262E501D22FB
:10285A006100E4F4F6F46100E8F4F7F40800F550D6
:10286A000009D8A43BEF14F03DEF14F01BEF14F06D
:10287A001CC533F51DC534F5120001EE60F1200EBA
:10288A00EE6AE806FDE101EE01F1230EEE6AE806C2
:10289A00FDE1000EF86E250EF76E000178EF13F0D9
:1028AA003D0E3D6E050E3E6E000E336E000E346E0A
:1028BA003BC535F53CC536F53D0E376E050E386E0F
:0828CA0011EC14F012001200E1
:020000040001F9
:04FFFC0042EF14F0CC
:020000040020DA
:10000000FF0FFF0FFF0FFF0FFF0FFF0FFF0FFF0F80
:10001000FF0FFF0FFF0FFF0FFF0FFF0FFF0FFF0F70
:10002000FF0FFF0FFF0FFF0FFF0FFF0FFF0FFF0F60
:10003000FF0FFF0FFF0FFF0FFF0FFF0FFF0FFF0F50
:020000040030CA
:0A000000FFFFFFFFFFFFFFFFFFFF00
:00000001FF
