:040000007DEF02F09E
:100400003E013E013E013E013E013E013E013E01F4
:100410003E013E013E013E013E013E013E013E01E4
:100420003E013E013E013E013E013E013E013E01D4
:100430003E013E013E013E013E013E013E013E01C4
:10044000490A3E013E013E013E013E013E013E01A0
:100450003E013E013E013E013E013E013E013E01A4
:10046000A70A3E013E013E013E013E013E013E0122
:100470003E013E013E013E013E013E013E013E0184
:100480003E013E013E013E013E013E013E013E0174
:100490003E013E013E013E013E013E013E013E0164
:1004A0003E013E013E013E013E013E013E013E0154
:1004B0003E013E013E013E013E013E013E013E0144
:1004C0003E013E013E013E013E013E013E013E0134
:1004D0003E013E013E013E013E013E013E013E0124
:1004E0003E013E013E013E013E013E013E013E0114
:0E04F0003E013E013E013E01FF00D2EF14F03E
:0F2600000025632563256325632563256300009B
:1026100018C5D9F419C5DAF4DEC4F6F4DDC4F7F44C
:10262000000EF86E0800F550250AD8A41AEF13F032
:102630001CEF13F06BEF13F018C5D9F419C5DAF4D9
:10264000DE2A000EDD22000E436E000E426E42C5F1
:1026500046F54468456818C5D9F419C5DAF4DEC4EE
:10266000F6F4DDC4F7F4000EF86E0800F550630AC6
:10267000D8A43DEF13F03FEF13F062EF13F018C54D
:10268000D9F419C5DAF4DE2A000EDD221AC5D9F410
:102690001BC5DAF4DFC41CF5020EDE26DFC41DF50F
:1026A000000EDD221CC5D9F41DC5DAF4DF501E6E04
:1026B00016C50EF517C50FF51EC510F5D1EC13F0B4
:1026C00081EF13F018C5D9F419C5DAF4DE2A000E2B
:1026D000DD2281EF13F018C5D9F419C5DAF4DEC490
:1026E000F6F4DDC4F7F4000EF86E0800F550056E40
:1026F000066A16C507F517C508F51EEC14F062EF5B
:1027000013F0120043EC15F026EC15F0800E036E6A
:10271000250E046E000E056E000E066EB3EC14F06E
:10272000FEEC14F0CB960401289729972C972B8761
:102730002A97C386000EE8EC14F003C53EF504C5E5
:102740003FF5020EE8EC14F003C540F504C541F571
:10275000010E276E260E286E000E2A6E000E296EC0
:1027600040502B6E2C6A41502D6E2E6A3E502F6EBB
:10277000306A3F50316E326A000E346E336813ECAB
:1027800015F0090E3D6E1E0E3C6EE40EE82EFED7CF
:102790003C2EFCD73D2EFAD700D09AEF13F07DEFF8
:1027A00002F042504310D8A4D8EF13F0DAEF13F040
:1027B000E0EF13F042C514F543C515F5E6EF13F04D
:1027C000FF0E4224146EFF0E4320156E15BEEBEF74
:1027D00013F0EDEF13F0EFEF13F0F3EF13F0000E43
:1027E000156E000E146E000E136E000E126E05EFC5
:1027F00014F0000E066E200E056E0EC507F50FC50F
:1028000008F51EEC14F0124A132A1450125C1350EF
:10281000800A116E1550800A1158D8A012EF14F0DA
:1028200014EF14F0F9EF13F010C505F5066A0EC5A4
:1028300007F50FC508F51EEC14F01200075008103C
:10284000D8B425EF14F027EF14F030EF14F0075050
:102850000810D8A42EEF14F030EF14F035EF14F078
:10286000055049EC15F068EF14F020EE09F0075020
:10287000D9260850DA22DE50DE10D8B442EF14F028
:1028800044EF14F05FEF14F020EE09F00750D92662
:102890000850DA2210EE03F00750E1260850E22239
:1028A000DE50E65CE650800A0D6EDE50800A0D5860
:1028B000D8B05DEF14F05FEF14F068EF14F020EE85
:1028C00003F00750D9260850DA22DE2A000EDD2256
:1028D000120021C525F522C526F57DEF14F01FC590
:1028E00016F520C517F5250E186E050E196E23C5B1
:1028F0001AF524C51BF508EC13F025C5F6F426C51A
:10290000F7F4000EF86E0800F5500009D8A48BEF1C
:1029100014F08DEF14F06FEF14F0000E206E000E27
:102920001F6E1200A1C247F59CEF14F0C396B1EFE1
:1029300014F0C386B1EF14F04750016E026A0250E2
:10294000000AD8B4A6EF14F0B1EF14F00150410A18
:10295000D8B496EF14F0030AD8B499EF14F0B1EF9D
:1029600014F0B29011000201AB9F010EAF6FA00EE8
:10297000AE6FF00EAB17AB8BAB89AC8F200E296F0F
:10298000CB900401289129912C912B812A91290E19
:102990000201726FCB820401289329932C932B831D
:1029A0002A93120001EE60F1200EEE6AE806FDE1C6
:1029B00001EE3EF10A0EEE6AE806FDE10401000EAA
:1029C0005D6F040E5E6F000E5F6F000182EF13F00B
:1029D000076E07C5ECF30301F381F3B1F2EF14F0D6
:1029E000F4EF14F0EDEF14F0EB51066E056AEA51C6
:1029F0000524036E000E0620046E1200C680C684F5
:102A00000401008100850301F399F351F30B0409DC
:102A1000F36FF80EF5170F0EF817F00EF8170F0EEC
:102A2000FA6FF38F1200290E356E050E366E000E0A
:102A30001F6E000E206E27C521F528C522F5350E24
:102A4000236E050E246E69EC14F01200D68AD68E21
:102A5000D68CA280B29003016681D69E000E04013E
:102A60005F6F040E5E6F000E5D6FD68E1200036EF8
:102A70000201B2AF3EEF15F040EF15F038EF15F060
:102A800003C5A3F21200600E0001AD6F080EB16F16
:0E2A90001200046E045037EC15F01200110015
:020000040020DA
:10000000FF0FFF0FFF0FFF0FFF0FFF0FFF0FFF0F80
:10001000FF0FFF0FFF0FFF0FFF0FFF0FFF0FFF0F70
:10002000FF0FFF0FFF0FFF0FFF0FFF0FFF0FFF0F60
:10003000FF0FFF0FFF0FFF0FFF0FFF0FFF0FFF0F50
:020000040030CA
:0A0000008CDDFFFF9FFFDFFFFFFF15
:00000001FF
