:04000000FEEFFFF020
:10260000003F065B4F666D7D077F6700010EF66E2B
:1026100021EE06F1090E0900F5C4DEF4E806FBE23E
:10262000060E0324D96EDA6A050EDA22DF50106E28
:1026300050EC14F010A01FEF13F021EF13F033EF64
:1026400013F001C5D9F402C5DAF4DF50046E010EAF
:10265000056E042A2EEF13F0D8900536042E2CEFC9
:1026600013F00550BE1210A238EF13F03AEF13F03A
:102670004EEF13F020EE01F00150D9260250DA227D
:10268000DF50046E010E056E042A49EF13F0D89056
:102690000536042E47EF13F00550BE1210A453EF79
:1026A00013F055EF13F069EF13F020EE02F0015034
:1026B000D9260250DA22DF50046E010E056E042A7C
:1026C00064EF13F0D8900536042E62EF13F0055036
:1026D000C21210A66EEF13F070EF13F084EF13F038
:1026E00020EE03F00150D9260250DA22DF50046EAA
:1026F000010E056E042A7FEF13F0D8900536042EE4
:102700007DEF13F00550C01210A889EF13F08BEF86
:1027100013F09FEF13F020EE04F00150D926025081
:10272000DA22DF50046E010E056E042A9AEF13F0D0
:10273000D8900536042E98EF13F00550C11210AA58
:10274000A4EF13F0A6EF13F0BAEF13F020EE05F0AC
:102750000150D9260250DA22DF50046E010E056EB8
:10276000042AB5EF13F0D8900536042EB3EF13F01A
:102770000550C11210ACBFEF13F0C1EF13F0D5EF4D
:1027800013F020EE06F00150D9260250DA22DF5075
:10279000046E010E056E042AD0EF13F0D8900536B2
:1027A000042ECEEF13F00550C1121200C69604019C
:1027B00000970197049703870297BE96C6980099E1
:1027C0000199049903890299BE98CA94209521958C
:1027D000249523852295C294C89E109F119F149F13
:1027E000138F129FC09EC990189119911C911B8143
:1027F0001A91C190C992189319931C931B831A9331
:10280000C192C994189519951C951B851A95C19468
:10281000120058EC14F0D6EC13F0000E196E000EF6
:10282000186E1A0E016E050E026E18C503F506EC41
:1028300013F0410E176EF00E166E330EE82EFED713
:10284000162EFCD7172EFAD700F0184A192A19BEEF
:1028500033EF14F0195009E10A0E185CD8A033EFD9
:1028600014F035EF14F011EF14F00DEF14F0FEEF4B
:10287000FFF0BC0EF66E280EF76E000EF86E01EE3D
:102880001AF110EE07F00900F5C4EEF4E550E1503E
:10289000FAE1000EF86E260EF76E000109EF14F053
:1028A000BE96BE98C294C09EC190C192C1941200BF
:1028B000600E0001AD6F080EB16F12000304020735
:0328C00000010212
:020000040001F9
:04FFFC0039EF14F0D5
:020000040020DA
:10000000FF0FFF0FFF0FFF0FFF0FFF0FFF0FFF0F80
:10001000FF0FFF0FFF0FFF0FFF0FFF0FFF0FFF0F70
:10002000FF0FFF0FFF0FFF0FFF0FFF0FFF0FFF0F60
:10003000FF0FFF0FFF0FFF0FFF0FFF0FFF0FFF0F50
:020000040030CA
:0A0000008CDDFFFF9FFFDFFFFFFF15
:00000001FF
