:04000000FEEFFFF020
:1026000000024000070054656D7065726174757258
:10261000612D3E25302E33660A0D00696E66006E10
:10262000616E0000000E0501816F36C582F537C569
:1026300083F538C584F539C585F585BF24EF13F0DA
:1026400022EF13F038EF13F0010E816F82C501F510
:1026500083C502F584C503F585C504F54DEC28F066
:1026600001C582F502C583F503C584F504C585F56A
:10267000000E0501876F000E866FCFC571F5D0C5BE
:1026800072F58151D8B447EF13F049EF13F05DEFC5
:1026900013F08151D8A44FEF13F051EF13F057EF1F
:1026A00013F0000E676F2B0E666F5BEF13F0000EDA
:1026B000676F2D0E666F66C581F582C501F583C50E
:1026C00002F584C503F585C504F57DEC24F001040D
:1026D0000210D8A46EEF13F070EF13F0A3EF13F015
:1026E00005018151D8B477EF13F079EF13F082EF41
:1026F00013F081C500F67107D8A07207000E876F2E
:10270000010E866F000E8625016E060E8721026E71
:102710001B0E036E260E046EEBEC27F00501FD0E7A
:102720007127FF0E722334C513F535C514F5000E5D
:10273000156E060E166E71C517F572C518F57FEC8D
:1027400026F043EF18F082C501F583C502F584C574
:1027500003F585C504F57DEC24F001500210D8A4E2
:10276000B4EF13F0B6EF13F0D6EF13F0050181517B
:10277000D8B4BDEF13F0BFEF13F0C8EF13F081C56D
:1027800000F67107D8A07207000E876F010E866FE2
:10279000000E8625016E060E8721026E1F0E036E47
:1027A000260E046EEBEC27F08EEF13F0000E050101
:1027B000886F000E896F800E8A6F3F0E8B6F000E40
:1027C000706F000E6F6F82C501F583C502F584C579
:1027D00003F585C504F5000E056E000E066E000EAD
:1027E000076E000E086E2AEC26F0D8B0FAEF13F050
:1027F000FCEF13F0DBEF14F009EF14F073C588F56C
:1028000074C589F575C58AF576C58BF505016F4BDD
:10281000702B88C50FF589C510F58AC511F58BC5D4
:1028200012F5000E136E000E146E200E156E410E82
:10283000166EA4EC1AF00FC573F510C574F511C52A
:1028400075F512C576F505017351825D016E7451FF
:102850008359026E75518459036E76518559046E01
:10286000F6EC26F004BE40EF14F004500310021002
:1028700009E1020E015CD8A040EF14F042EF14F021
:10288000FEEF13F073C528F574C529F575C52AF553
:1028900076C52BF582C52CF583C52DF584C52EF59F
:1028A00085C52FF5FBEC23F0D8A059EF14F05BEFB2
:1028B00014F0FEEF13F005018851825D016E89511D
:1028C0008359026E8A518459036E8B518559046E67
:1028D000F6EC26F004BE7AEF14F004500310021058
:1028E00007E1020E015CD8B078EF14F07AEF14F033
:1028F000C2EF14F088C582F589C583F58AC584F5D1
:102900008BC585F5DBEF14F088C501F589C502F5A7
:102910008AC503F58BC504F5000E056E000E066E24
:10292000200E076E410E086E92EC1EF001C588F570
:1029300002C589F503C58AF504C58BF505016F0746
:10294000D8A070078851825D016E89518359026E4B
:102950008A518459036E8B518559046EF6EC26F02A
:1029600004BEC0EF14F004500310021007E1020E81
:10297000015CD8B0BEEF14F0C0EF14F0C2EF14F059
:102980007AEF14F082C528F583C529F584C52AF5A8
:1029900085C52BF588C52CF589C52DF58AC52EF57D
:1029A0008BC52FF5FBEC23F0D8A0D9EF14F0DBEFAB
:1029B00014F084EF14F03AC569F569C56AF50501AC
:1029C000D2BFE5EF14F0E7EF14F0EDEF14F0D1C54E
:1029D00062F5D2C563F5F1EF14F0000E636F060ED9
:1029E000626F62C56DF563C56EF56D4B6E2B660E3D
:1029F0006A19D8A4FEEF14F000EF15F020EF15F0DF
:102A000070BF07EF15F005EF15F013EF15F0000E8E
:102A1000886F000E896F800E8A6F3F0E8B6F000EDD
:102A2000706F000E6F6F670E6919D8B41AEF15F04A
:102A30001CEF15F020EF15F06F516D2770516E23CC
:102A4000000E806F000E7F6F82C577F583C578F525
:102A500084C579F585C57AF588C573F589C574F59A
:102A60008AC575F58BC576F5B1EF15F077C501F51B
:102A700078C502F579C503F57AC504F588C505F56D
:102A800089C506F58AC507F58BC508F592EC1EF0D9
:102A900001C51AF502C51BF503C51CF504C51DF5D6
:102AA0005FEC20F01AC57BF51BC57CF51CC57DF5D8
:102AB0001DC57EF57BC501F57CC502F57DC503F519
:102AC0007EC504F578EC23F001C56BF502C56CF505
:102AD00077C528F578C529F579C52AF57AC52BF586
:102AE0007BC513F57CC514F57DC515F57EC516F5BA
:102AF00088C50FF589C510F58AC511F58BC512F586
:102B0000A4EC1AF00FC52CF510C52DF511C52EF546
:102B100012C52FF5A5EC27F028C577F529C578F55E
:102B20002AC579F52BC57AF588C501F589C502F561
:102B30008AC503F58BC504F5000E056E000E066E02
:102B4000200E076E410E086E92EC1EF001C588F54E
:102B500002C589F503C58AF504C58BF505017F4BD0
:102B6000802B6D517F5D8051800A3B6E6E51800AD3
:102B70003B58D8A0BEEF15F0C0EF15F036EF15F0BA
:102B800088C50FF589C510F58AC511F58BC512F5F5
:102B9000000E136E000E146EA00E156E400E166E13
:102BA000A4EC1AF00FC57BF510C57CF511C57DF5B9
:102BB00012C57EF577C528F578C529F579C52AF5BA
:102BC0007AC52BF57BC52CF57CC52DF57DC52EF57D
:102BD0007EC52FF5FBEC23F0D8B0F1EF15F0F3EF45
:102BE00015F0FEEF15F0000E05017B6F000E7C6FF7
:102BF000000E7D6F000E7E6F27EF16F077C501F592
:102C000078C502F579C503F57AC504F57BC505F5E8
:102C10007CC506F57DC507F57EC508F52AEC26F0CE
:102C2000D8A015EF16F017EF16F027EF16F00501F4
:102C30006BB11DEF16F01FEF16F027EF16F0000E28
:102C40007B6F000E7C6F000E7D6F000E7E6F82C565
:102C500001F583C502F584C503F585C504F57BC57B
:102C600005F57CC506F57DC507F57EC508F544EC80
:102C700018F001C577F502C578F503C579F504C5E7
:102C80007AF577C528F578C529F579C52AF57AC585
:102C90002BF5000E136E000E146E200E156E410EF5
:102CA000166E73C50FF574C510F575C511F576C5AB
:102CB00012F5A4EC1AF00FC52CF510C52DF511C5B1
:102CC0002EF512C52FF5FBEC23F0D8A06AEF16F015
:102CD0006CEF16F095EF16F005016F4B702B73C576
:102CE0000FF574C510F575C511F576C512F5000E12
:102CF000136E000E146E200E156E410E166EA4ECAF
:102D00001AF00FC573F510C574F511C575F512C528
:102D100076F5660E05016A19D8A491EF16F093EFC7
:102D200016F095EF16F06D4B6E2B73C588F574C5D4
:102D300089F575C58AF576C58BF56FC560F570C5E3
:102D400061F5000E0501686F000E656F000E646F7F
:102D5000000E806F000E7F6F93EF17F077C501F5BF
:102D600078C502F579C503F57AC504F588C505F57A
:102D700089C506F58AC507F58BC508F592EC1EF0E6
:102D800001C51AF502C51BF503C51CF504C51DF5E3
:102D90005FEC20F01AC57BF51BC57CF51CC57DF5E5
:102DA0001DC57EF57BC501F57CC502F57DC503F526
:102DB0007EC504F578EC23F002BEEAEF16F002506F
:102DC00007E10A0E015CD8B0E8EF16F0EAEF16F062
:102DD000FAEF16F07BC501F57CC502F57DC503F55C
:102DE0007EC504F578EC23F001C56BF502C56CF5E2
:102DF000FFEF16F0000E05016C6F090E6B6F0501F9
:102E00006851D8A406EF17F008EF17F030EF17F06D
:102E100061BF0FEF17F00DEF17F030EF17F0000E56
:102E20008625D96E060E8721DA6E2E0EDF6E864B52
:102E3000872B7107D8A07207010E686F30EF17F06B
:102E4000000E8625D96E060E8721DA6E300EDF6EF3
:102E5000864B872B7107D8A072076407D8A0650737
:102E600064516511D8A437EF17F039EF17F020EF50
:102E700017F0000E8625D96E060E8721DA6E6B518B
:102E8000300FDF6E864B872B7107D8A0720777C58E
:102E900028F578C529F579C52AF57AC52BF57BC5BE
:102EA00013F57CC514F57DC515F57EC516F588C5E9
:102EB0000FF589C510F58AC511F58BC512F5A4EC7F
:102EC0001AF00FC52CF510C52DF511C52EF512C53C
:102ED0002FF5A5EC27F028C577F529C578F52AC583
:102EE00079F52BC57AF588C501F589C502F58AC53E
:102EF00003F58BC504F5000E056E000E066E200E60
:102F0000076E410E086E92EC1EF001C588F502C5F1
:102F100089F503C58AF504C58BF505016007D8A0BE
:102F200061077F4B802B6D517F5D8051800A3B6E26
:102F30006E51800A3B58D8B0A0EF17F0A2EF17F0FF
:102F4000B0EF17F087BFAEEF17F0875109E14B0ED6
:102F5000865DD8A0AEEF17F0B0EF17F0AEEF16F029
:102F6000000E806F4F0E7F6F000E7F25D96E060E0C
:102F70008021DA6E000EDF6E000E3B6E060E3C6E98
:102F800086513B5E87513C5A7F513B24016E8051F4
:102F90003C20026E000E036E060E046E86C505F51B
:102FA00087C506F57DEC27F0050186517F5D866FAC
:102FB00087518059876F8151D8A4E1EF17F0E4EF72
:102FC00017F0010EE5EF17F0000E7F6F806B5EA229
:102FD000ECEF17F0EEEF17F01CEF18F0FEEF17F024
:102FE0008607D8A08707000E8625D96E060E872192
:102FF000DA6E300EDF6E7107D8A0720771517F5DF7
:103000008051800A3B6E7251800A3B58D8B00BEF5A
:1030100018F00DEF18F01CEF18F086517F5D80510D
:10302000800A3B6E8751800A3B58D8A01AEF18F0EF
:103030001CEF18F0F0EF17F08151D8B422EF18F020
:1030400024EF18F02FEF18F08607D8A08707000E9E
:103050008625D96E060E8721DA6E81C5DFF47F5191
:10306000715F8051725B34C513F535C514F5000EE0
:103070008625156E060E8721166E71C517F572C569
:1030800018F57FEC26F012000450800B0D6E0450F2
:1030900004240F6E03AE4FEF18F051EF18F052EF0B
:1030A00018F00F800F50D8B458EF18F05AEF18F0FE
:1030B0006FEF18F00F28D8A460EF18F062EF18F047
:1030C0006AEF18F0000E016E000E026E000E036E25
:1030D000000E046E038E000E046E77EF18F0000EE3
:1030E000016E000E026E000E036E000E046E08509C
:1030F000800B0E6E0D500E18D8B481EF18F083EFD0
:1031000018F084EF18F00D8C085008240E6E07AEEE
:103110008CEF18F08EEF18F08FEF18F00E800E5035
:10312000D8B495EF18F097EF18F0ACEF18F00E2820
:10313000D8A49DEF18F09FEF18F0A7EF18F0000E3D
:10314000056E000E066E000E076E000E086E078EEE
:10315000000E086EB4EF18F0000E056E000E066E3D
:10316000000E076E000E086E0F500E5CD8B0BBEF5D
:1031700018F0BDEF18F0E4EF18F00DACC2EF18F046
:10318000C4EF18F0C6EF18F0800E0D1A0FC510F539
:103190000EC50FF510C50EF501C510F505C501F5F5
:1031A00010C505F502C510F506C502F510C506F5F2
:1031B00003C510F507C503F510C507F504C510F5DF
:1031C00008C504F510C508F5000E106E0F500EC5A9
:1031D00009F50A6A095E000E0A5A0ABEF9EF18F0EC
:1031E0000A5009E11A0E095CD8A0F9EF18F0FBEFBC
:1031F00018F032EF19F00150021003100410D8A497
:1032000004EF19F007EF19F0010E08EF19F0000EA6
:10321000106E000E016E000E026E000E036E000EA8
:10322000046E0EC50FF53BEF19F010A01AEF19F060
:103230001CEF19F022EF19F0D89010300109106E30
:1032400024EF19F0D890103201A029EF19F02BEFDC
:1032500019F02CEF19F0108E0434043203320232CC
:1032600001320F2A0E500F5CD8A039EF19F03BEF56
:1032700019F015EF19F00DBC40EF19F042EF19F0FD
:1032800082EF19F00F50D8A448EF19F04AEF19F067
:1032900054EF19F0000E016E000E026E000E036E68
:1032A000000E046EA3EF1AF005500126065002220C
:1032B000075003220850042204A061EF19F063EFC5
:1032C00019F00FEF1AF010A068EF19F06AEF19F07B
:1032D00070EF19F0D89010300109106E72EF19F0EC
:1032E000D890103201A077EF19F079EF19F07AEF4A
:1032F00019F0108E043404320332023201320F2AE4
:103300000FEF1AF00550015C0650025807500358A1
:103310000450800A096E0850800A0958D8B093EF0B
:1033200019F095EF19F0C0EF19F00150055C096E26
:10333000025006580A6E035007580B6E0450085886
:103340000C6EFF0E0924016EFF0E0A20026EFF0EA6
:103350000B20036EFF0E0C20046E800E0D1A106CF5
:103360001050D8A4B6EF19F0B8EF19F0C8EF19F063
:10337000010E0126000E022203220422C8EF19F0DA
:103380000550015E0650025A0750035A0850045A6D
:103390000150021003100410D8A4D1EF19F0D3EF9C
:1033A00019F008EF1AF01050D8A4D9EF19F0DBEF9C
:1033B00019F008EF1AF0000E016E000E026E000EFA
:1033C000036E000E046EA3EF1AF0D8900136023699
:1033D0000336043610AEEFEF19F0F1EF19F0F2EF0B
:1033E00019F0018010A0F7EF19F0F9EF19F0FDEFD7
:1033F00019F0D8801036FFEF19F0D89010360F5022
:10340000D8B405EF1AF007EF1AF008EF1AF00F061C
:1034100003AE0DEF1AF00FEF1AF0E5EF19F0000E02
:103420000E6E10AE16EF1AF018EF1AF030EF1AF019
:1034300010C509F57F0E0916D8B421EF1AF023EF55
:103440001AF027EF1AF0010E0E6E30EF1AF001A0FD
:103450002CEF1AF02EEF1AF030EF1AF023EF1AF0DB
:103460000E50D8B436EF1AF038EF1AF063EF1AF0B6
:10347000010E0126000E02220322042204A043EFC3
:103480001AF045EF1AF063EF1AF001C509F502C50D
:103490000AF503C50BF504C50CF50C340C320B32E0
:1034A0000A32093209C501F50AC502F50BC503F553
:1034B0000CC504F50F28D8B460EF1AF062EF1AF0CB
:1034C00063EF1AF00F2A0F28D8B469EF1AF06BEFE8
:1034D0001AF073EF1AF00F50D8A471EF1AF073EFCF
:1034E0001AF085EF1AF0000E016E000E026E000E4B
:1034F000036E000E046E0F50D8A481EF1AF083EF14
:103500001AF085EF1AF0000E0D6E0FA08AEF1AF078
:103510008CEF1AF08FEF1AF0038E90EF1AF0039EE3
:10352000D8900F30046E0DAE98EF1AF09AEF1AF0A3
:103530009BEF1AF0048E01C501F502C502F503C523
:1035400003F504C504F512001250800B1B6E1250D7
:103550001224216E11AEAFEF1AF0B1EF1AF0B2EFF4
:103560001AF021802150D8B4B8EF1AF0BAEF1AF04F
:10357000CDEF1AF02128D8A4C0EF1AF0C2EF1AF04C
:10358000CAEF1AF0000E0F6E000E106E000E116ED4
:10359000000E126E118ED5EF1AF0000E0F6E000E97
:1035A000106E000E116E000E126E1650800B1B1A5C
:1035B00016501624206E15AEE0EF1AF0E2EF1AF066
:1035C000E3EF1AF020802050D8B4E9EF1AF0EBEFC7
:1035D0001AF0FEEF1AF02028D8A4F1EF1AF0F3EF5A
:1035E0001AF0FBEF1AF0000E136E000E146E000EB0
:1035F000156E000E166E158E06EF1BF0000E136E84
:10360000000E146E000E156E000E166E2050D8B40B
:103610000CEF1BF00EEF1BF016EF1BF02150D8A49F
:1036200014EF1BF016EF1BF020EF1BF0000E0F6ED7
:10363000000E106E000E116E000E126EB8EF1CF030
:1036400015500F02F3C426F5F4C427F526501C6E5E
:103650001D6A1E6A1F6A2750226E236A246A256A21
:1036600014501002F3C426F5F4C427F526501C2686
:10367000000E1D221E221F2227502226000E23226A
:103680002422252213501102F3C426F5F4C427F591
:1036900026501C26000E1D221E221F2227502226E5
:1036A000000E2322242225221EC51FF51DC51EF54E
:1036B0001CC51DF51C6A13501002F3C426F5F4C492
:1036C00027F526501C2627501D22000E1E22000E14
:1036D0001F2214500F02F3C426F5F4C427F5265018
:1036E0001C2627501D22000E1E22000E1F221EC562
:1036F0001FF51DC51EF51CC51DF51C6A13500F02D4
:10370000F3C426F5F4C427F526501C2627501D22A5
:10371000000E1E22000E1F2215501002F3C426F5C3
:10372000F4C427F52650222627502322000E2422F7
:10373000000E252214501102F3C426F5F4C427F517
:103740002650222627502322000E2422000E252256
:1037500015501102F3C426F5F4C427F52650176E50
:103760002750186E196A1A6A19C51AF518C519F57D
:1037700017C518F5176A175022261850232219501A
:1037800024221A5025221CC517F51DC518F51EC583
:1037900019F51FC51AF5190ED3EF1BF0D8901A3280
:1037A000193218321732E82ECEEF1BF017502226AE
:1037B00018502322195024221A5025221EC51FF505
:1037C0001DC51EF51CC51DF51C6A205021C517F529
:1037D000186A1726000E1822820E1724266EFF0E76
:1037E0001820276E09EF1CF0D89022362336243695
:1037F00025361FAEFEEF1BF000EF1CF001EF1CF0B2
:103800002280D8901C361D361E361F362606D8A0BC
:10381000270624AE0EEF1CF010EF1CF0F4EF1BF0A7
:10382000000E206E1FAE17EF1CF019EF1CF03DEFDD
:103830001CF0FF0E1C14176EFF0E1D14186EFF0EE9
:103840001E14196E7F0E1F141A6E175018101910BF
:103850001A10D8B42EEF1CF030EF1CF034EF1CF02F
:10386000010E206E3DEF1CF022A039EF1CF03BEF63
:103870001CF03DEF1CF030EF1CF02050D8B443EFAB
:103880001CF045EF1CF069EF1CF0010E2226000E23
:1038900023222422252225A050EF1CF052EF1CF0F9
:1038A00069EF1CF022C517F523C518F524C519F5D5
:1038B00025C51AF51A341A3219321832173217C5BB
:1038C00022F518C523F519C524F51AC525F5264A8C
:1038D000272A27BE74EF1CF0275008E12628D8A01D
:1038E00074EF1CF076EF1CF080EF1CF0000E226EDF
:1038F000000E236E800E246E7F0E256EAEEF1CF040
:1039000027BE8DEF1CF0275006E12604D8B08BEFC0
:103910001CF08DEF1CF099EF1CF0000E226E000ED3
:10392000236E000E246E000E256E000E1B6EAEEF91
:103930001CF026C521F5FF0E2216FF0E23167F0E62
:103940002416000E251621A0A8EF1CF0AAEF1CF0EB
:10395000ABEF1CF0248ED8902130256E1B50251221
:1039600022C50FF523C510F524C511F525C512F59F
:1039700012008EC5D9F48FC5DAF4DEC4F6F4DDC4C6
:10398000F7F4000EF86E0800F550250AD8A4CBEF26
:103990001CF0CDEF1CF07BEF1EF08EC5D9F48FC567
:1039A000DAF4DE2A000EDD22000E0501D06F000ED3
:1039B000CF6FCFC55EF5D169D269000E496E000E9A
:1039C000486E0FEF1DF05E828EC5D9F48FC5DAF414
:1039D000DE2A000EDD220FEF1DF0000E496E010EF3
:1039E000486E0FEF1DF08EC5D9F48FC5DAF4DEC432
:1039F000F6F4DDC4F7F4000EF86E0800F5503D6EE5
:103A00003E6A3E50000AD8B408EF1DF0EDEF1CF0FE
:103A10003D50300AD8B4E3EF1CF0EDEF1CF04850F5
:103A20004910D8B416EF1DF018EF1DF0F3EF1CF09D
:103A30008EC5D9F48FC5DAF4DEC4F6F4DDC4F7F42C
:103A4000000EF86E0800F5502E0AD8A42AEF1DF0DB
:103A50002CEF1DF09EEF1DF0000E0501D26F000E41
:103A6000D16F8EC5D9F48FC5DAF4DE2A000EDD22BF
:103A70008EC5D9F48FC5DAF4DEC4F6F4DDC4F7F4EC
:103A8000000EF86E0800F5502A0AD8A44AEF1DF07F
:103A90004CEF1DF069EF1DF08EC5D9F48FC5DAF437
:103AA000DE2A000EDD2290C5D9F491C5DAF4DFC418
:103AB0003DF5020EDE26DFC43EF5000EDD223DC5DB
:103AC000D9F43EC5DAF4DEC4D1F5DDC4D2F59EEFFB
:103AD0001DF08EC5D9F48FC5DAF4DEC407F5DDC458
:103AE00008F542EC22F007C5D1F508C5D2F580EF04
:103AF0001DF08EC5D9F48FC5DAF4DE2A000EDD2262
:103B00008EC5D9F48FC5DAF4DEC4F6F4DDC4F7F45B
:103B1000000EF86E0800F5C43DF5D00E3D243E6E53
:103B20003F6AFF0E3F223F5009E10A0E3E5CD8A0DB
:103B30009CEF1DF09EEF1DF079EF1DF08EC5D9F4BE
:103B40008FC5DAF4DEC44BF5DDC44CF54BC5F6F495
:103B50004CC5F7F4000EF86E0800F5C44AF5BDEF49
:103B60001DF04B4A4C2AD6EF1DF06C0E4A6ED6EF74
:103B70001DF0000E4A6ED6EF1DF04A503D6E3E6AB3
:103B80003E50000AD8B4C7EF1DF0B9EF1DF03D500C
:103B90004C0AD8B4B1EF1DF02A0AD8B4B5EF1DF025
:103BA0000A0AD8B4B1EF1DF0B9EF1DF04BC5F6F419
:103BB0004CC5F7F4000EF86E0800F550660AD8A45C
:103BC000E4EF1DF0E6EF1DF072EF1EF01CEF1EF0AB
:103BD00090C5D9F491C5DAF4DFC43DF5040EDE26B4
:103BE000DFC43EF5000EDD223DC5D9F43EC5DAF452
:103BF000DEC440F5DEC441F5DEC442F5DEC443F563
:103C000031EF1EF090C5D9F491C5DAF4DFC43DF56B
:103C1000040EDE26DFC43EF5000EDD223DC5D9F4DC
:103C20003EC5DAF4DEC440F5DEC441F5DEC442F53B
:103C3000DEC443F531EF1EF04A503D6E3E6A3E5001
:103C4000000AD8B426EF1EF031EF1EF03D504C0AAA
:103C5000D8B402EF1EF0200AD8B4E8EF1DF031EF1F
:103C60001EF0010E4B243D6E000E4C203E6E8EC5A4
:103C7000D9F48FC5DAF43DC5DEF43EC5DDF45AEF64
:103C80001EF08CC534F58DC535F540C536F541C5FA
:103C900037F542C538F543C539F54BC5F6F44CC583
:103CA000F7F4000EF86E0800F5C43AF512EC13F0C4
:103CB00091EF1EF04BC5F6F44CC5F7F4000EF86E0C
:103CC0000800F5503D6E3E6A3E50000AD8B46BEFD6
:103CD0001EF072EF1EF03D50660AD8B441EF1EF0A0
:103CE00072EF1EF08EC5D9F48FC5DAF4DE2A000E0D
:103CF000DD2291EF1EF08EC5D9F48FC5DAF4DEC453
:103D0000F6F4DDC4F7F4000EF86E0800F550036E0B
:103D1000046A8CC505F58DC506F566EC25F072EFD5
:103D20001EF012000450800B116E04500424186E13
:103D300003AE9DEF1EF09FEF1EF0A0EF1EF0188067
:103D40001850D8B4A6EF1EF0A8EF1EF0BDEF1EF07D
:103D50001828D8A4AEEF1EF0B0EF1EF0B8EF1EF09A
:103D6000000E016E000E026E000E036E000E046E59
:103D7000038E000E046EC5EF1EF0000E016E000EE5
:103D8000026E000E036E000E046E0850800B111AB6
:103D900008500824196E07AED0EF1EF0D2EF1EF0C7
:103DA000D3EF1EF019801950D8B4D9EF1EF0DBEF15
:103DB0001EF0F0EF1EF01928D8A4E1EF1EF0E3EF9B
:103DC0001EF0EBEF1EF0000E056E000E066E000EEC
:103DD000076E000E086E078E000E086EF8EF1EF0DC
:103DE000000E056E000E066E000E076E000E086EC9
:103DF0000550061007100810D8A401EF1FF003EFBC
:103E00001FF01BEF1FF0000E016E000E026E000E81
:103E1000036E000E046E800E03127F0E041211500A
:103E2000041201C501F502C502F503C503F504C579
:103E300004F55EEF20F01850D8A421EF1FF023EF17
:103E40001FF02DEF1FF0000E016E000E026E000E2F
:103E5000036E000E046E5EEF20F0195018C509F5D0
:103E60000A6A095E000E0A5A7F0E0924126E000EBD
:103E70000A20136E01C50DF502C50EF503C50FF539
:103E800004C510F5000E016E000E026E000E036EEA
:103E9000000E046E000E146E000E156E000E166EEF
:103EA000000E176E000E196E8EEF1FF01950D8B469
:103EB0005CEF1FF05EEF1FF075EF1FF0D8900D362E
:103EC0000E360F361036D8900136023603360436D9
:103ED00017AE6DEF1FF06FEF1FF070EF1FF0018056
:103EE000D890143615361636173605500D5C065028
:103EF0000E5807500F5808501058D8A082EF1FF0E6
:103F000084EF1FF08DEF1FF0178C05500D5E0650EB
:103F10000E5A07500F5A0850105A192A190E1964D0
:103F200094EF1FF096EF1FF056EF1FF00D500E109C
:103F30000F101010D8B49FEF1FF0A1EF1FF0B9EFD2
:103F40001FF01480B9EF1FF0D89001360236033607
:103F5000043617AEAEEF1FF0B0EF1FF0B1EF1FF059
:103F60000180D89014361536163617361206D8A0AA
:103F7000130603AEBEEF1FF0C0EF1FF0A4EF1FF05B
:103F8000000E196E17AEC7EF1FF0C9EF1FF0EDEF6F
:103F90001FF0FF0E1414096EFF0E15140A6EFF0EAB
:103FA00016140B6E7F0E17140C6E09500A100B10AE
:103FB0000C10D8B4DEEF1FF0E0EF1FF0E4EF1FF0BD
:103FC000010E196EEDEF1FF001A0E9EF1FF0EBEF0E
:103FD0001FF0EDEF1FF0E0EF1FF01950D8B4F3EF32
:103FE0001FF0F5EF1FF019EF20F0010E0126000E73
:103FF00002220322042204A000EF20F002EF20F0AE
:1040000019EF20F001C509F502C50AF503C50BF546
:1040100004C50CF50C340C320B320A32093209C5D6
:1040200001F50AC502F50BC503F50CC504F5124AE6
:10403000132A13BE24EF20F0135008E11228D8A051
:1040400024EF20F026EF20F031EF20F0000E136E69
:104050001268000E016E000E026E000E036E000E5E
:10406000046E13BE3EEF20F0135006E11204D8B0E8
:104070003CEF20F03EEF20F04CEF20F0000E136EEE
:10408000000E126E000E016E000E026E000E036E28
:10409000000E046E000E116E12C518F518A053EF35
:1040A00020F055EF20F058EF20F0038E59EF20F06C
:1040B000039ED8901830046E0FEF1FF01200C7C592
:1040C0002AF5C8C52BF5C9C52CF5CAC52DF51AC5E5
:1040D0002AF51BC52BF51CC52CF51DC52DF5810E2C
:1040E0001E6EFF0E1F6E2AC520F52BC521F52CC5AF
:1040F00022F52DC523F5180E83EF20F0D89023323A
:10410000223221322032E82E7EEF20F020501E2471
:10411000286E000E1F20296E29BE98EF20F029502E
:1041200009E1170E285CD8A098EF20F09AEF20F054
:10413000A4EF20F01AC51AF51BC51BF51CC51CF50C
:104140001DC51DF567EF21F029BEA9EF20F0ABEFEB
:1041500020F01BEF21F028C51EF5FF0E1F6EFF0E8D
:10416000206E7F0E216E000E226E1E66BAEF20F0CA
:10417000C2EF20F022342232213220321F321E2E92
:10418000B5EF20F01FC524F520C525F521C526F57E
:1041900022C527F524502A141E6E25502B141F6E9D
:1041A00026502C14206E27502D14216E1E501F10E7
:1041B00020102110D8A4DFEF20F0E1EF20F0E3EF92
:1041C00020F09AEF20F02AC51EF52BC51FF52CC54F
:1041D00020F52DC521F5200EF3EF20F0D8902132E7
:1041E00020321F321E32E82EEEEF20F01E501F103C
:1041F00020102110D8B4FFEF20F001EF21F009EFDB
:1042000021F024502A2625502B2226502C222750DC
:104210002D22241C1E6E251C1F6E261C206E271CA2
:10422000216E1E502A161F502B1620502C1621507E
:104230002D165FEF21F02AC51EF52BC51FF52CC5E5
:1042400020F52DC521F5200E2BEF21F0D89021323D
:1042500020321F321E32E82E26EF21F01E501F1092
:1042600020102110D8A437EF21F039EF21F043EFCF
:1042700021F0000E2A6E000E2B6E000E2C6E000E2A
:104280002D6E5FEF21F0D8902A341E6E2B341F6EF6
:104290002C34206E2D34216E1E501F102010211042
:1042A000D8B455EF21F057EF21F05FEF21F0000E69
:1042B0002A6E000E2B6E800E2C6EBF0E2D6E2AC540
:1042C0001AF52BC51BF52CC51CF52DC51DF51200C7
:1042D000096E0950D8B46FEF21F071EF21F093EF20
:1042E00021F004BE78EF21F076EF21F093EF21F07A
:1042F00001C505F502C506F503C507F504C508F5B2
:10430000051E061E071E081E052A000E062207228D
:10431000082205C50BF506C50CF507C50DF508C542
:104320000EF59BEF21F001C50BF502C50CF503C599
:104330000DF504C50EF50150021003100410D8A4A9
:10434000A4EF21F0A6EF21F0B0EF21F0000E016EF6
:10435000000E026E000E036E000E046E41EF22F09E
:10436000960E0A6EBAEF21F00A2AD8900E320D325C
:104370000C320B32000E0B14056E000E0C14066E80
:10438000000E0D14076EFE0E0E14086E055006107A
:1043900007100810D8A4CFEF21F0D1EF21F0B4EF2F
:1043A00021F0DFEF21F00A2A010E0B26000E0C226D
:1043B0000D220E22D8900E320D320C320B32000E2E
:1043C0000B14056E000E0C14066E000E0D14076E15
:1043D000FF0E0E14086E0550061007100810D8A422
:1043E000F4EF21F0F6EF21F0D3EF21F0FEEF21F012
:1043F0000A06D8900B360C360D360E360DBE03EF7E
:1044000022F005EF22F00DEF22F0020E0A600BEF12
:1044100022F00DEF22F0F8EF21F00AB012EF22F0B7
:1044200014EF22F015EF22F00D9ED8900A320AC543
:1044300005F5066A076A086A05C508F5076A066A87
:10444000056A05500B1206500C1207500D12085049
:104450000E120950D8B42FEF22F031EF22F039EFCD
:1044600022F004BE38EF22F036EF22F039EF22F0CE
:104470000E8E0BC501F50CC502F50DC503F50EC575
:1044800004F51200000E0F6E000E0E6E000E0D6E83
:10449000000E0C6E4EEF22F0074A082A07C5F6F40C
:1044A00008C5F7F4000EF86E0800F550200AD8B4DD
:1044B0005CEF22F05EEF22F04CEF22F007C5F6F43D
:1044C00008C5F7F4000EF86E0800F5C409F5F70EFC
:1044D00009240A6E0B6AFF0E0B220B5009E1050E30
:1044E0000A5CD8A076EF22F078EF22F04CEF22F0B1
:1044F00082EF22F0000E0D6E010E0C6E074A082AA4
:10450000BBEF22F007C5F6F408C5F7F4000EF86E0D
:104510000800F550096E0A6A0A50000AD8B493EFF1
:1045200022F0BBEF22F009502B0AD8B47EEF22F024
:10453000060AD8B47AEF22F0BBEF22F00EC501F5DF
:104540000FC502F5000E046E0A0E036E97EC28F0FC
:1045500007C5F6F408C5F7F4000EF86E0800F5502C
:10456000015E000E025A300E01240E6E000E022073
:104570000F6E7EEF22F007C5F6F408C5F7F4000EC3
:10458000F86E0800F5C409F5D00E09240A6E0B6A0E
:10459000FF0E0B220B5009E10A0E0A5CD8A0D3EFE4
:1045A00022F0D5EF22F09EEF22F00C500D10D8A48F
:1045B000DCEF22F0DEEF22F0ECEF22F00EC509F581
:1045C0000FC50AF5091E0A1E094A0A2A09C507F578
:1045D0000AC508F5F0EF22F00EC507F50FC508F57E
:1045E000120003EC29F0C198000EFCEC24F0C50E7B
:1045F000026E050E036E000E056E020E046E2FECA9
:1046000028F028EC29F0C188C5C5C3F5C6C5C4F596
:104610000501C3515D6E5C6AC4515C24C16F000E1C
:104620005D20C26FC1C501F5C2C502F5036A046A07
:10463000000E68EC21F001C50FF502C510F503C5A9
:1046400011F504C512F5000E136E000E146E800EE7
:10465000156E3E0E166EA4EC1AF00FC5B9F510C516
:10466000BAF511C5BBF512C5BCF5B9C501F5BAC59A
:1046700002F5BBC503F5BCC504F5000E056E000EC2
:10468000066E200E076E410E086E92EC1EF001C5FC
:10469000BDF502C5BEF503C5BFF504C5C0F5A00E46
:1046A0000501986F050E996F060E9A6F260E9B6F87
:1046B000BDC59CF5BEC59DF5BFC59EF5C0C59FF5A2
:1046C00054EC27F0A00E026E050E036E69EC28F084
:1046D000210E5D6E780E5C6E980EE82EFED75C2E75
:1046E000FCD75D2EFAD700D0F3EF22F0FEEFFFF0FB
:1046F000033404340A6E0A50D8A481EF23F083EF08
:1047000023F08DEF23F0000E016E000E026E000EFE
:10471000036E000E046EFAEF23F001C505F502C525
:1047200006F503C507F504C508F5200E9DEF23F037
:10473000D8900832073206320532E82E98EF23F07F
:104740000550096E038EFF0E0116FF0E0216FF0EB6
:104750000316000E0416960E0A5E0ABEB4EF23F08E
:10476000B2EF23F0CAEF23F00A50800A970FD8B0B7
:10477000BCEF23F0BEEF23F0C0EF23F083EF23F074
:10478000D89004320332023201320A3EC0EF23F0E5
:10479000E2EF23F01F0E0A64D0EF23F0D2EF23F0F4
:1047A000DAEF23F083EF23F0D89001360236033698
:1047B00004360A060A50D8A4E0EF23F0E2EF23F013
:1047C000D4EF23F00950D8B4E8EF23F0EAEF23F058
:1047D000F2EF23F0041E031E021E016C000E0222E3
:1047E0000322042201C501F502C502F503C503F544
:1047F00004C504F51200000E2814306E000E2914B2
:10480000316E800E2A14326E7F0E2B14336E3050B0
:10481000311032103310D8A410EF24F012EF24F02E
:104820001AEF24F0000E286E000E296E000E2A6E7C
:10483000000E2B6E000E2C14306E000E2D14316EF7
:10484000800E2E14326E7F0E2F14336E30503110C6
:1048500032103310D8A42FEF24F031EF24F039EFC9
:1048600024F0000E2C6E000E2D6E000E2E6E000E2B
:104870002F6E2BAE3EEF24F040EF24F049EF24F0F2
:10488000286C291ED8B0292A2A1ED8B02A2A800EC0
:104890002B562FAE4EEF24F050EF24F059EF24F0BA
:1048A0002C6C2D1ED8B02D2A2E1ED8B02E2A800E8C
:1048B0002F56000E281A000E291A000E2A1A800EF2
:1048C0002B1A000E2C1A000E2D1A000E2E1A800E16
:1048D0002F1A2C50285C2D5029582E502A582F5012
:1048E0002B58D8B076EF24F078EF24F07BEF24F04B
:1048F000D8907CEF24F0D8801200CBC50BF5CCC546
:104900000CF5CDC50DF5CEC50EF501C50BF502C5EF
:104910000CF503C50DF504C50EF50BC505F50CC565
:1049200006F50DC507F50EC508F5180E9DEF24F028
:10493000D8900832073206320532E82E98EF24F07C
:104940000550096E0A6A09500A10D8A4AAEF24F08B
:10495000ACEF24F0CCEF24F0D8900B34056E0C347F
:10496000066E0D34076E0E34086E055006100710E3
:104970000810D8A4BEEF24F0C0EF24F0C6EF24F056
:10498000000E026E020E016EFBEF24F0000E026EAE
:10499000030E016EFBEF24F009280A10D8A4D3EF10
:1049A00024F0D5EF24F0F7EF24F00BC505F50CC586
:1049B00006F50DC507F50EC508F5090ED8900536A4
:1049C000063607360836E82EDEEF24F005500610CE
:1049D00007100810D8B4EFEF24F0F2EF24F0010E26
:1049E000F3EF24F0000E016E026AFBEF24F0000EDC
:1049F000026E040E016E1200026E000184BF03EF0E
:104A000025F005EF25F065EF25F00250050D010EAC
:104A1000F324F66E260EF420F76EF86A000EF822E4
:104A20000800F5C484F00250050D010EF326000EB7
:104A3000F422010EF324F66E260EF420F76EF86AC7
:104A4000000EF8220800F5C485F00250050D020E94
:104A5000F326000EF422010EF324F66E260EF42047
:104A6000F76EF86A000EF8220800F5500309866F09
:104A70000250050D030EF326000EF422010EF3245E
:104A8000F66E260EF420F76EF86A000EF822080083
:104A9000F5C489F00250050D040EF326000EF42231
:104AA000010EF324F66E260EF420F76EF86A000E5F
:104AB000F8220800F5C401F5013A01460146C85044
:104AC0000118BF0B0118C86E848F12000550061024
:104AD000D8B46DEF25F06FEF25F078EF25F0055095
:104AE0000610D8A476EF25F078EF25F07DEF25F0BD
:104AF000035023EC29F0CAEF25F020EE09F0055011
:104B0000D9260650DA22DE50DE10D8B48AEF25F01E
:104B10008CEF25F0A7EF25F020EE09F00550D926FF
:104B20000650DA2210EE03F00550E1260650E2228C
:104B3000DE50E65CE650800A0B6EDE50800A0B58B1
:104B4000D8B0A5EF25F0A7EF25F0CAEF25F020EEAD
:104B500003F00550D9260650DA22DEC407F5DDC47D
:104B600008F505C5D9F406C5DAF4DEC409F5DDC4D7
:104B70000AF507500924D96E08500A20DA6E03C5D9
:104B8000DFF420EE03F00550D9260650DA22DE2AA3
:104B9000000EDD221200000EC26E100EC16E000E5D
:104BA000BE6E000EC36E000EBF6E000EC06E070E0E
:104BB000CA6EFE0ECB6EC668C768AF0EC86EEF0E2B
:104BC000C96EEF0E0401186F8F0E106F0869070E83
:104BD000206FFD0E286F0069000E196F000E296FFF
:104BE000000E216F000E096F000E016F000E116F95
:104BF000000E0201896F000E886F000E876F000E95
:104C0000866F000E0401226F000E2A6F000E026FE5
:104C1000000E0A6F000E126F000E1A6F03690B6907
:104C200013691B69070E236F2B6904690C691469EA
:104C30001C690F0E246F2C69160E02016A6F320E6A
:104C4000156F310E176F200E296F290E726F150E1A
:104C50006B6F1200000E0114096E000E02140A6E32
:104C6000800E03140B6E7F0E04140C6E09500A1094
:104C70000B100C10D8A43FEF26F041EF26F049EFBF
:104C800026F0000E016E000E026E000E036E000E86
:104C9000046E000E0514096E000E06140A6E800ED6
:104CA00007140B6E7F0E08140C6E09500A100B10BF
:104CB0000C10D8A45EEF26F060EF26F068EF26F027
:104CC000000E056E000E066E000E076E000E086EDA
:104CD000055001180FE1065002180CE107500318A7
:104CE00009E108500418D8B478EF26F07AEF26F0DE
:104CF0007DEF26F0D8907EEF26F0D880120018BE07
:104D000084EF26F086EF26F08CEF26F017C51CF511
:104D100018C51DF590EF26F0000E1D6E000E1C6EDE
:104D2000000E1B6E000E1A6EA2EF26F0000E046E2F
:104D3000200E036E13C505F514C506F566EC25F0C7
:104D40001A4A1B2A1C501A5C1B50800A196E1D50EF
:104D5000800A1958D8A0AFEF26F0B1EF26F096EFF1
:104D600026F015C50CF516C50DF513C50EF514C5C1
:104D70000FF50DEC28F01200000E0201A56F000ED9
:104D8000A66F000EA76F000EA86F000EA96F000E91
:104D9000AA6FB00EAB6F800EAC6F000EAD6F8A0EB7
:104DA000AE6F000EAF6F000EB06F000EB16F000E51
:104DB000B26F000EB36F000E016E000E026E000E99
:104DC000036E15EC29F0000E016E000E026E000E4F
:104DD000036E0EEC29F0000E016E000E026E000E46
:104DE000036E1CEC29F0000E5F6E120004BE05EF8E
:104DF00027F004500310021006E10104D8B003EFBD
:104E000027F005EF27F020EF27F001C505F502C5D3
:104E100006F503C507F504C508F5051E061E071EA1
:104E2000081E052A000E06220722082205C501F5E4
:104E300006C502F507C503F508C504F528EF27F0F8
:104E400001C501F502C502F503C503F504C504F566
:104E5000120094C54DF595C54EF53EEF27F092C56D
:104E60008CF593C58DF54D0E05018E6F050E8F6F78
:104E700096C590F597C591F5B9EC1CF04DC5F6F4C3
:104E80004EC5F7F4000EF86E0800F5500009D8A4DE
:104E90004CEF27F04EEF27F02FEF27F0000E050123
:104EA000936F000E926F12009C0E4F6E050E506EA7
:104EB00098C551F599C552F5000E556E000E546E09
:104EC000000E5B6E000E5A6E510E0501926F050EBC
:104ED000936F9AC594F59BC595F54F0E966F050E89
:104EE000976F29EC27F0545005019825D96E55503D
:104EF0009921DA6E000EDF6E120003C509F504C5B4
:104F00000AF501C507F502C508F597EF27F009C5B1
:104F1000D9F40AC5DAF4DF500B6E094A0A2A07C52C
:104F2000D9F408C5DAF40BC5DFF4074A082A0506E8
:104F3000D8A00606052806E10628D8A4A2EF27F087
:104F4000A4EF27F087EF27F01200000E2C1A000EB6
:104F50002D1A000E2E1A800E2F1A28C501F529C50C
:104F600002F52AC503F52BC504F52CC505F52DC59D
:104F700006F52EC507F52FC508F544EC18F001C558
:104F800028F502C529F503C52AF504C52BF512003D
:104F9000010E056E200E01180210D8B4D2EF27F0D2
:104FA000D4EF27F0E7EF27F0F70E0124036EFF0E92
:104FB0000220046E045009E1050E035CD8A0E3EF63
:104FC00027F0E5EF27F0E7EF27F0000E056E05C5A7
:104FD00001F5026A120003C505F504C506F501C511
:104FE00007F502C508F505C5F6F406C5F7F4054A48
:104FF000062A000EF86E07C5D9F408C5DAF4074A88
:10500000082A0800F5C4DFF4DF50D8A40AEF28F01E
:105010000CEF28F0F3EF27F01200000E126E000ED6
:10502000116E1EEF28F010C503F5046A0EC505F5D4
:105030000FC506F566EC25F0114A122A11500C2412
:10504000D96E12500D20DA6EDF50106E1050D8A4B9
:105050002CEF28F02EEF28F013EF28F0120002C5F5
:1050600006F503C507F53FEF28F0000ECDEC28F05C
:1050700006C5D9F407C5DAF4DF6E064A072A040626
:10508000D8A00506042806E10528D8A44AEF28F090
:105090004CEF28F035EF28F01200015002100310F9
:1050A0000410D8B456EF28F058EF28F060EF28F03D
:1050B000000E011A000E021A000E031A800E041AC6
:1050C00001C501F502C502F503C503F504C504F5E4
:1050D000120074EF28F002C5D9F403C5DAF4DF50EA
:1050E000F8EC28F0024A032A02C5D9F403C5DAF421
:1050F000DF50D8A47EEF28F080EF28F06BEF28F087
:105100001200D00E0124036EFF0E0220046E045024
:105110000AE10A0E035CD8A090EF28F093EF28F084
:10512000010E94EF28F0000E016E026A1200015089
:105130000302F3C405F5F4C406F501500402F3506C
:10514000062602500302F350062605C501F506C5E2
:1051500002F51200000E0001606F000E616F000E7C
:10516000636F000E646F000E656F000E666F000EB9
:10517000676F000E686F120001EE00F2500EEE6ACB
:10518000E806FDE101EEC7F10C0EEE6AE806FDE16E
:105190005F6A5E6A0001F1EF22F0016E010E00010C
:1051A000826F01C581F0B1A0D8EF28F0DAEF28F0C6
:1051B000D3EF28F0000180511200600E0001AD6FA6
:1051C000000EAF6F000EB36F080EB16F000EB06F20
:1051D000000EAC6F1200020E0001846F400E856F4E
:1051E000000E866F000E8C6F070E896FC89C120030
:1051F000016EB2A2FEEF28F000EF29F0F9EF28F0DF
:1052000001C5A3F21200AAEC28F0CBEC25F0DDECEE
:1052100028F0BCEC26F0EBEC28F0120001C5D6F526
:1052200002C5D7F503C5D8F5120001C5D9F502C5E9
:10523000DAF503C5DBF5120001C5D3F502C5D4F5D7
:1052400003C5D5F51200026E0250F8EC28F01200EA
:065250000001849F120022
:020000040001F9
:04FFFC00BCEF28F03E
:020000040020DA
:10000000FF0FFF0FFF0FFF0FFF0FFF0FFF0FFF0F80
:10001000FF0FFF0FFF0FFF0FFF0FFF0FFF0FFF0F70
:10002000FF0FFF0FFF0FFF0FFF0FFF0FFF0FFF0F60
:10003000FF0FFF0FFF0FFF0FFF0FFF0FFF0FFF0F50
:020000040030CA
:0A0000008CFFF7FF9FFFFFFFFFFFDB
:00000001FF
