:04000000FEEFFFF020
:020000040001F9
:10FFAE000001E0EFFFF0600E0001AD6F080EB16FC3
:10FFBE001200DAECFFF0CB960401289729972C97C4
:10FFCE002B872A97C788089909890C990B890A9952
:10FFDE00CFB8F4EFFFF0F6EFFFF0F9EFFFF0C396B6
:10FFEE00EFEFFFF0C386EFEFFFF0FEEFFFF0D7EF7E
:02FFFE00FFF012
:020000040020DA
:10000000FF0FFF0FFF0FFF0FFF0FFF0FFF0FFF0F80
:10001000FF0FFF0FFF0FFF0FFF0FFF0FFF0FFF0F70
:10002000FF0FFF0FFF0FFF0FFF0FFF0FFF0FFF0F60
:10003000FF0FFF0FFF0FFF0FFF0FFF0FFF0FFF0F50
:020000040030CA
:0A0000008CDDFFFF9FFFDFFFFFFF15
:00000001FF
