:04000000FEEFFFF020
:020000040001F9
:10FFB4000001E3EFFFF0600E0001AD6F080EB16FBA
:10FFC4001200DDECFFF0CB960401289729972C97BB
:10FFD4002B872A97080EC31A110E076E3C0E066E65
:10FFE400CB0EE82EFED7062EFCD7072EFAD700F04C
:0CFFF400ECEFFFF0FEEFFFF0DAEFFFF0A3
:020000040020DA
:10000000FF0FFF0FFF0FFF0FFF0FFF0FFF0FFF0F80
:10001000FF0FFF0FFF0FFF0FFF0FFF0FFF0FFF0F70
:10002000FF0FFF0FFF0FFF0FFF0FFF0FFF0FFF0F60
:10003000FF0FFF0FFF0FFF0FFF0FFF0FFF0FFF0F50
:020000040030CA
:0A0000008CDDFFFF9FFFDFFFFFFF15
:00000001FF
