:04000000FEEFFFF020
:020000040001F9
:10FE7200000166EFFFF00AC507F50BC508F50CC5D2
:10FE820009F512000AC504F50BC505F50CC506F502
:10FE920012000AC501F50BC502F50CC503F51200E7
:10FEA20058ECFFF097ECFFF077ECFFF01200600ED9
:10FEB2000001AD6F000EAF6F000EB36F080EB16F91
:10FEC200000EB06F000EAC6F120051ECFFF0CFB815
:10FED2006DEFFFF06FEFFFF072EFFFF0C39668EF88
:10FEE200FFF0C38668EFFFF0FEEFFFF0D69AAF9007
:10FEF200D680000E0A6E000E0B6E000E0C6E3CECED
:10FF0200FFF0B490D682000E0A6E000E0B6E000E49
:10FF12000C6E43ECFFF0B890D684000E0A6E000E11
:10FF22000B6E000E0C6E4AECFFF01200000EBE6E5D
:10FF3200000EBF6E000EC06E000EC16E000EC26ECD
:10FF4200000EC36EC668C768C868C9680F0ECA6E5D
:10FF5200F70ECB6E04010069EF0E086F1069186985
:10FF6200070E206FF70E286F000E016F100E096F3B
:10FF7200000E116F000E196F000E216F000E296F17
:10FF8200000E0201896F000E886F000E876F000E4F
:10FF9200866F000E0401026F000E0A6F000E126FD0
:10FFA200000E1A6F000E226F000E2A6F03690B6992
:10FFB20013691B69070E236F2B6904690C691469A5
:10FFC2001C690F0E246F2C69000E056F000E066F60
:10FFD200000E076F000E0D6F000E0E6F000E0F6FFA
:10FFE200000E156F000E166F000E176F000E256FB4
:0EFFF200000E266F000E276F120039EFFFF091
:020000040020DA
:10000000FF0FFF0FFF0FFF0FFF0FFF0FFF0FFF0F80
:10001000FF0FFF0FFF0FFF0FFF0FFF0FFF0FFF0F70
:10002000FF0FFF0FFF0FFF0FFF0FFF0FFF0FFF0F60
:10003000FF0FFF0FFF0FFF0FFF0FFF0FFF0FFF0F50
:020000040030CA
:0A000000FFFFF7FF9FFFFFFFFFFF68
:00000001FF
