:040000007DEF02F09E
:10040000480A480A480A480A3E01480A3E01480A82
:100410001F0A480A480A480A480A480A480A480A75
:10042000480A3E013E013E01480A480A480A480A75
:10043000480A480A480A480A480A480A480A080A6C
:10044000480A480A480A480A3E013E01480A480A42
:10045000480A480A480A3E01480A480A480A480A1F
:10046000250A480A480A480A480A480A480A480A1F
:10047000480A480A480A480A3E01480A480A480AFF
:10048000480A480A480A480A480A480A480A480ADC
:10049000480A480A480A480A3E01480A3E013E0105
:1004A0002B0A480A480A480A480A480A480A480AD9
:1004B000480A480A480A480A480A480A480A480AAC
:1004C000480A480A480A480A480A480A480A480A9C
:1004D000480A480A480A480A480A480A480A480A8C
:1004E0003E01480A480A480A3E013E013E013E01DB
:0E04F000480A480A480A480AFF0031EF14F093
:1026000000F62700000000000000000000E628009F
:1026100000000000000EBE6E000EBF6E000EC06E09
:10262000000EC16E000EC26E000EC36EC668EF0EC5
:10263000C76EC868C9680F0ECA6ECB68040100690E
:10264000EE0E086F10691869070E206F2869000EDA
:10265000016F000E096F000E116F000E196F000E52
:10266000216F000E296F000E0201896F000E886F26
:10267000000E876F000E866F000E0401026F000EC1
:102680000A6F000E126F000E1A6F000E226F000EFE
:102690002A6F03690B6913691B69070E236F2B6986
:1026A00004690C6914691C690F0E246F2C69080EEB
:1026B00002013E6F000E0401056F000E066F000E52
:1026C000076F000E0D6F000E0E6F000E0F6F000EE5
:1026D000156F000E166F000E176F000E256F000E9F
:1026E000266F000E276F1200D68A000ED6BE010E8E
:1026F000176ED69E550E0401596FAA0E596F599147
:10270000000E5F6F040E5E6F000E5D6F550E596F09
:10271000AA0E596F598117B002D0D69E01D0D68E1D
:1027200003016381658FAF90D680220E146E290E4F
:10273000156E000E166E88EC14F09F80B490D68251
:10274000240E146E290E156E000E166E81EC14F018
:10275000B890D684260E146E290E156E000E166ED5
:102760007AEC14F012000A500B100C10D8B4BBEF26
:1027700013F0BDEF13F0CAEF13F002D8CAEF13F055
:102780000500FA6E0A50FD6E0B50FE6E0C50FF6E87
:10279000FA5012001200075008100910D8B4D3EFF5
:1027A00013F0D5EF13F0E2EF13F002D8E2EF13F0DD
:1027B0000500FA6E0750FD6E0850FE6E0950FF6E60
:1027C000FA5012001200045005100610D8B4EBEFB6
:1027D00013F0EDEF13F0FAEF13F002D8FAEF13F065
:1027E0000500FA6E0450FD6E0550FE6E0650FF6E39
:1027F000FA5012001200260E0301196F000E186F16
:102800004C0E1B6F000E146E000E156E000E166E31
:1028100073EC14F0B19EA18E800E03011A6F1200AA
:10282000BFB815EF14F018EF14F0010E19EF14F003
:10283000000EFF0A136E133ABF501318EF0B131854
:10284000BF6EB19E1100600E0001AD6F000EAF6F44
:10285000000EB36F080EB16F000EB06F000EAC6FBC
:102860001200196A186A0401000E5D6F040E5E6F93
:0A287000000E5F6F00016BEF14F023
:10287C00FAC40DF5FBC40EF5AF90B3EC13F00EC516
:10288C00FBF40DC5FAF41100FAC40FF5FBC410F5F6
:10289C00B490CBEC13F010C5FBF40FC5FAF4110097
:1028AC00FAC411F5FBC412F5B890E3EC13F012C5A1
:1028BC00FBF411C5FAF4110023EC14F00AEC13F03C
:1028CC00FBEC13F074EC13F0120062EC14F0D68EE7
:1028DC00D69E6FEF14F07DEF02F014C501F515C50F
:1028EC0002F516C503F5120014C504F515C505F55A
:1028FC0016C506F5120014C507F515C508F516C55D
:10290C0009F5120014C50AF515C50BF516C50CF51D
:02291C001200A7
:08292000110012001200120068
:020000040020DA
:10000000FF0FFF0FFF0FFF0FFF0FFF0FFF0FFF0F80
:10001000FF0FFF0FFF0FFF0FFF0FFF0FFF0FFF0F70
:10002000FF0FFF0FFF0FFF0FFF0FFF0FFF0FFF0F60
:10003000FF0FFF0FFF0FFF0FFF0FFF0FFF0FFF0F50
:020000040030CA
:0A000000FFFFFFFF9FFFFFFFFFFF60
:00000001FF
